{
  "contractName": "RedFoxMigration",
  "abi": [
    {
      "inputs": [
        {
          "internalType": "address",
          "name": "tokenContract",
          "type": "address"
        }
      ],
      "stateMutability": "nonpayable",
      "type": "constructor"
    },
    {
      "anonymous": false,
      "inputs": [
        {
          "indexed": true,
          "internalType": "address",
          "name": "previousOwner",
          "type": "address"
        },
        {
          "indexed": true,
          "internalType": "address",
          "name": "newOwner",
          "type": "address"
        }
      ],
      "name": "OwnershipTransferred",
      "type": "event"
    },
    {
      "anonymous": false,
      "inputs": [
        {
          "indexed": false,
          "internalType": "address",
          "name": "account",
          "type": "address"
        },
        {
          "indexed": false,
          "internalType": "uint256",
          "name": "amount",
          "type": "uint256"
        }
      ],
      "name": "RedFoxMigrated",
      "type": "event"
    },
    {
      "inputs": [],
      "name": "isOwner",
      "outputs": [
        {
          "internalType": "bool",
          "name": "",
          "type": "bool"
        }
      ],
      "stateMutability": "view",
      "type": "function"
    },
    {
      "inputs": [],
      "name": "owner",
      "outputs": [
        {
          "internalType": "address",
          "name": "",
          "type": "address"
        }
      ],
      "stateMutability": "view",
      "type": "function"
    },
    {
      "inputs": [],
      "name": "renounceOwnership",
      "outputs": [],
      "stateMutability": "nonpayable",
      "type": "function"
    },
    {
      "inputs": [
        {
          "internalType": "address",
          "name": "newOwner",
          "type": "address"
        }
      ],
      "name": "transferOwnership",
      "outputs": [],
      "stateMutability": "nonpayable",
      "type": "function"
    },
    {
      "inputs": [],
      "name": "checkTokenBalance",
      "outputs": [
        {
          "internalType": "uint256",
          "name": "",
          "type": "uint256"
        }
      ],
      "stateMutability": "view",
      "type": "function"
    },
    {
      "inputs": [
        {
          "components": [
            {
              "internalType": "bytes20",
              "name": "account",
              "type": "bytes20"
            },
            {
              "components": [
                {
                  "internalType": "uint256",
                  "name": "blockHeight",
                  "type": "uint256"
                },
                {
                  "internalType": "uint256",
                  "name": "amount",
                  "type": "uint256"
                },
                {
                  "internalType": "bool",
                  "name": "paid",
                  "type": "bool"
                }
              ],
              "internalType": "struct RedFoxMigration.TimedBalance[]",
              "name": "balances",
              "type": "tuple[]"
            }
          ],
          "internalType": "struct RedFoxMigration.SetRBalance[]",
          "name": "balances",
          "type": "tuple[]"
        }
      ],
      "name": "setRAccountBalances",
      "outputs": [],
      "stateMutability": "nonpayable",
      "type": "function"
    },
    {
      "inputs": [
        {
          "internalType": "bytes20",
          "name": "account",
          "type": "bytes20"
        },
        {
          "components": [
            {
              "internalType": "uint256",
              "name": "blockHeight",
              "type": "uint256"
            },
            {
              "internalType": "uint256",
              "name": "amount",
              "type": "uint256"
            },
            {
              "internalType": "bool",
              "name": "paid",
              "type": "bool"
            }
          ],
          "internalType": "struct RedFoxMigration.TimedBalance[]",
          "name": "balances",
          "type": "tuple[]"
        }
      ],
      "name": "setRAccountBalance",
      "outputs": [],
      "stateMutability": "nonpayable",
      "type": "function"
    },
    {
      "inputs": [
        {
          "components": [
            {
              "internalType": "address",
              "name": "account",
              "type": "address"
            },
            {
              "components": [
                {
                  "internalType": "uint256",
                  "name": "blockHeight",
                  "type": "uint256"
                },
                {
                  "internalType": "uint256",
                  "name": "amount",
                  "type": "uint256"
                },
                {
                  "internalType": "bool",
                  "name": "paid",
                  "type": "bool"
                }
              ],
              "internalType": "struct RedFoxMigration.TimedBalance[]",
              "name": "balances",
              "type": "tuple[]"
            }
          ],
          "internalType": "struct RedFoxMigration.SetEthBalance[]",
          "name": "balances",
          "type": "tuple[]"
        }
      ],
      "name": "setEthAccountBalances",
      "outputs": [],
      "stateMutability": "nonpayable",
      "type": "function"
    },
    {
      "inputs": [
        {
          "internalType": "address",
          "name": "ethAddress",
          "type": "address"
        },
        {
          "components": [
            {
              "internalType": "uint256",
              "name": "blockHeight",
              "type": "uint256"
            },
            {
              "internalType": "uint256",
              "name": "amount",
              "type": "uint256"
            },
            {
              "internalType": "bool",
              "name": "paid",
              "type": "bool"
            }
          ],
          "internalType": "struct RedFoxMigration.TimedBalance[]",
          "name": "balances",
          "type": "tuple[]"
        }
      ],
      "name": "setEthAccountBalance",
      "outputs": [],
      "stateMutability": "nonpayable",
      "type": "function"
    },
    {
      "inputs": [
        {
          "internalType": "address",
          "name": "ethAddress",
          "type": "address"
        }
      ],
      "name": "balancesOfEthAccount",
      "outputs": [
        {
          "components": [
            {
              "internalType": "uint256",
              "name": "blockHeight",
              "type": "uint256"
            },
            {
              "internalType": "uint256",
              "name": "amount",
              "type": "uint256"
            },
            {
              "internalType": "bool",
              "name": "paid",
              "type": "bool"
            }
          ],
          "internalType": "struct RedFoxMigration.TimedBalance[]",
          "name": "",
          "type": "tuple[]"
        }
      ],
      "stateMutability": "view",
      "type": "function"
    },
    {
      "inputs": [
        {
          "internalType": "bytes20",
          "name": "rAddress",
          "type": "bytes20"
        }
      ],
      "name": "balancesOfRAccount",
      "outputs": [
        {
          "components": [
            {
              "internalType": "uint256",
              "name": "blockHeight",
              "type": "uint256"
            },
            {
              "internalType": "uint256",
              "name": "amount",
              "type": "uint256"
            },
            {
              "internalType": "bool",
              "name": "paid",
              "type": "bool"
            }
          ],
          "internalType": "struct RedFoxMigration.TimedBalance[]",
          "name": "",
          "type": "tuple[]"
        }
      ],
      "stateMutability": "view",
      "type": "function"
    },
    {
      "inputs": [
        {
          "internalType": "address",
          "name": "ethAddress",
          "type": "address"
        }
      ],
      "name": "availableBalanceEthAddress",
      "outputs": [
        {
          "internalType": "uint256",
          "name": "",
          "type": "uint256"
        }
      ],
      "stateMutability": "view",
      "type": "function"
    },
    {
      "inputs": [
        {
          "internalType": "bytes20",
          "name": "account",
          "type": "bytes20"
        }
      ],
      "name": "availableBalanceRAddress",
      "outputs": [
        {
          "internalType": "uint256",
          "name": "",
          "type": "uint256"
        }
      ],
      "stateMutability": "view",
      "type": "function"
    },
    {
      "inputs": [
        {
          "internalType": "bytes32",
          "name": "publicKeyX",
          "type": "bytes32"
        },
        {
          "internalType": "bytes32",
          "name": "publicKeyY",
          "type": "bytes32"
        }
      ],
      "name": "balanceFromKey",
      "outputs": [
        {
          "internalType": "uint256",
          "name": "",
          "type": "uint256"
        }
      ],
      "stateMutability": "view",
      "type": "function"
    },
    {
      "inputs": [
        {
          "internalType": "bytes32",
          "name": "publicKeyX",
          "type": "bytes32"
        },
        {
          "internalType": "bytes32",
          "name": "publicKeyY",
          "type": "bytes32"
        }
      ],
      "name": "withdrawBalance",
      "outputs": [],
      "stateMutability": "nonpayable",
      "type": "function"
    },
    {
      "inputs": [
        {
          "internalType": "bytes32",
          "name": "publicKeyX",
          "type": "bytes32"
        },
        {
          "internalType": "bytes32",
          "name": "publicKeyY",
          "type": "bytes32"
        }
      ],
      "name": "getEthereumAddress",
      "outputs": [
        {
          "internalType": "address",
          "name": "addr",
          "type": "address"
        }
      ],
      "stateMutability": "pure",
      "type": "function"
    },
    {
      "inputs": [
        {
          "internalType": "bytes32",
          "name": "publicKeyX",
          "type": "bytes32"
        },
        {
          "internalType": "bytes32",
          "name": "publicKeyY",
          "type": "bytes32"
        }
      ],
      "name": "getAccountReference",
      "outputs": [
        {
          "internalType": "bytes20",
          "name": "",
          "type": "bytes20"
        }
      ],
      "stateMutability": "pure",
      "type": "function"
    },
    {
      "inputs": [
        {
          "internalType": "bytes32",
          "name": "publicKeyX",
          "type": "bytes32"
        },
        {
          "internalType": "bytes32",
          "name": "publicKeyY",
          "type": "bytes32"
        }
      ],
      "name": "getUncompressedPublicKey",
      "outputs": [
        {
          "internalType": "bytes",
          "name": "",
          "type": "bytes"
        }
      ],
      "stateMutability": "pure",
      "type": "function"
    },
    {
      "inputs": [
        {
          "internalType": "bytes32",
          "name": "publicKeyX",
          "type": "bytes32"
        },
        {
          "internalType": "bytes32",
          "name": "publicKeyY",
          "type": "bytes32"
        }
      ],
      "name": "getCompressedPublicKey",
      "outputs": [
        {
          "internalType": "bytes",
          "name": "",
          "type": "bytes"
        }
      ],
      "stateMutability": "pure",
      "type": "function"
    }
  ],
  "bytecode": "0x60806040523480156200001157600080fd5b50604051620025223803806200252283398181016040528101906200003791906200014e565b6000620000496200012f60201b60201c565b9050806000806101000a81548173ffffffffffffffffffffffffffffffffffffffff021916908373ffffffffffffffffffffffffffffffffffffffff1602179055508073ffffffffffffffffffffffffffffffffffffffff16600073ffffffffffffffffffffffffffffffffffffffff167f8be0079c531659141344cd1fd0a4f28419497f9722a3daafe3b4186f6b6457e060405160405180910390a35080600260006101000a81548173ffffffffffffffffffffffffffffffffffffffff021916908373ffffffffffffffffffffffffffffffffffffffff16021790555050620001c8565b600033905090565b6000815190506200014881620001ae565b92915050565b6000602082840312156200016157600080fd5b6000620001718482850162000137565b91505092915050565b600062000187826200018e565b9050919050565b600073ffffffffffffffffffffffffffffffffffffffff82169050919050565b620001b9816200017a565b8114620001c557600080fd5b50565b61234a80620001d86000396000f3fe608060405234801561001057600080fd5b50600436106101215760003560e01c80638e9e0553116100ad578063cf1c6de011610071578063cf1c6de01461031a578063d286464d1461034a578063d47098bf1461037a578063e80f95d1146103aa578063f2fde38b146103c657610121565b80638e9e0553146102645780638f32d59b146102945780638f657c8e146102b25780639d77097a146102e2578063c56c5cfe146102fe57610121565b80635e6639ea116100f45780635e6639ea146101d45780636dfa91c4146101f0578063715018a61461020c5780638a24ef25146102165780638da5cb5b1461024657610121565b806306a6e87c146101265780630a0146001461015657806340427087146101865780634f731087146101b6575b600080fd5b610140600480360381019061013b9190611a8a565b6103e2565b60405161014d9190611f8b565b60405180910390f35b610170600480360381019061016b9190611a8a565b61040e565b60405161017d9190611f70565b60405180910390f35b6101a0600480360381019061019b91906119e4565b6104d8565b6040516101ad919061202d565b60405180910390f35b6101be61059f565b6040516101cb919061202d565b60405180910390f35b6101ee60048036038101906101e9919061197a565b610656565b005b61020a60048036038101906102059190611939565b6106f2565b005b61021461078e565b005b610230600480360381019061022b9190611a8a565b610893565b60405161023d919061202d565b60405180910390f35b61024e6108dc565b60405161025b9190611eef565b60405180910390f35b61027e60048036038101906102799190611a8a565b610905565b60405161028b9190611f8b565b60405180910390f35b61029c61096c565b6040516102a99190611f55565b60405180910390f35b6102cc60048036038101906102c791906118bc565b6109ca565b6040516102d99190611f33565b60405180910390f35b6102fc60048036038101906102f791906118e5565b610a97565b005b61031860048036038101906103139190611a8a565b610bae565b005b610334600480360381019061032f9190611a8a565b610e1a565b6040516103419190611eef565b60405180910390f35b610364600480360381019061035f91906118bc565b610e40565b604051610371919061202d565b60405180910390f35b610394600480360381019061038f91906119e4565b610f15565b6040516103a19190611f33565b60405180910390f35b6103c460048036038101906103bf9190611a0d565b610fd4565b005b6103e060048036038101906103db91906118bc565b6110dd565b005b606082826040516020016103f7929190611eb8565b604051602081830303815290604052905092915050565b6000606061041c8484610905565b905060006002826040516104309190611ea1565b602060405180830381855afa15801561044d573d6000803e3d6000fd5b5050506040513d601f19601f820116820180604052508101906104709190611a61565b905060006003826040516020016104879190611e86565b6040516020818303038152906040526040516104a39190611ea1565b602060405180830381855afa1580156104c0573d6000803e3d6000fd5b5050506040515160601b905080935050505092915050565b600061059860036000846bffffffffffffffffffffffff19166bffffffffffffffffffffffff19168152602001908152602001600020805480602002602001604051908101604052809291908181526020016000905b8282101561058f578382906000526020600020906003020160405180606001604052908160008201548152602001600182015481526020016002820160009054906101000a900460ff1615151515815250508152602001906001019061052e565b50505050611130565b9050919050565b600080600260009054906101000a900473ffffffffffffffffffffffffffffffffffffffff1690508073ffffffffffffffffffffffffffffffffffffffff166370a08231306040518263ffffffff1660e01b81526004016106009190611eef565b60206040518083038186803b15801561061857600080fd5b505afa15801561062c573d6000803e3d6000fd5b505050506040513d601f19601f820116820180604052508101906106509190611ac6565b91505090565b61065e61096c565b61069d576040517f08c379a000000000000000000000000000000000000000000000000000000000815260040161069490611fcd565b60405180910390fd5b60005b81518110156106ee576106e18282815181106106b857fe5b6020026020010151600001518383815181106106d057fe5b602002602001015160200151610fd4565b80806001019150506106a0565b5050565b6106fa61096c565b610739576040517f08c379a000000000000000000000000000000000000000000000000000000000815260040161073090611fcd565b60405180910390fd5b60005b815181101561078a5761077d82828151811061075457fe5b60200260200101516000015183838151811061076c57fe5b602002602001015160200151610a97565b808060010191505061073c565b5050565b61079661096c565b6107d5576040517f08c379a00000000000000000000000000000000000000000000000000000000081526004016107cc90611fcd565b60405180910390fd5b600073ffffffffffffffffffffffffffffffffffffffff1660008054906101000a900473ffffffffffffffffffffffffffffffffffffffff1673ffffffffffffffffffffffffffffffffffffffff167f8be0079c531659141344cd1fd0a4f28419497f9722a3daafe3b4186f6b6457e060405160405180910390a360008060006101000a81548173ffffffffffffffffffffffffffffffffffffffff021916908373ffffffffffffffffffffffffffffffffffffffff160217905550565b6000806000905060006108a6858561040e565b905060006108b48586610e1a565b90506108bf826104d8565b830192506108cc81610e40565b8301925082935050505092915050565b60008060009054906101000a900473ffffffffffffffffffffffffffffffffffffffff16905090565b606060008260001c90506000600182169050600060018260ff16141561093157600360f81b9050610939565b600260f81b90505b6060818760405160200161094e929190611e5a565b60405160208183030381529060405290508094505050505092915050565b60008060009054906101000a900473ffffffffffffffffffffffffffffffffffffffff1673ffffffffffffffffffffffffffffffffffffffff166109ae6111be565b73ffffffffffffffffffffffffffffffffffffffff1614905090565b6060600460008373ffffffffffffffffffffffffffffffffffffffff1673ffffffffffffffffffffffffffffffffffffffff168152602001908152602001600020805480602002602001604051908101604052809291908181526020016000905b82821015610a8c578382906000526020600020906003020160405180606001604052908160008201548152602001600182015481526020016002820160009054906101000a900460ff16151515158152505081526020019060010190610a2b565b505050509050919050565b610a9f61096c565b610ade576040517f08c379a0000000000000000000000000000000000000000000000000000000008152600401610ad590611fcd565b60405180910390fd5b60005b8151811015610ba957600460008473ffffffffffffffffffffffffffffffffffffffff1673ffffffffffffffffffffffffffffffffffffffff168152602001908152602001600020828281518110610b3557fe5b60200260200101519080600181540180825580915050600190039060005260206000209060030201600090919091909150600082015181600001556020820151816001015560408201518160020160006101000a81548160ff02191690831515021790555050508080600101915050610ae1565b505050565b6000600260009054906101000a900473ffffffffffffffffffffffffffffffffffffffff1690506000610be18484610e1a565b90508073ffffffffffffffffffffffffffffffffffffffff163373ffffffffffffffffffffffffffffffffffffffff1614610c51576040517f08c379a0000000000000000000000000000000000000000000000000000000008152600401610c4890611fed565b60405180910390fd5b6000610c5d858561040e565b90506000610c6a826104d8565b610c7384610e40565b019050808473ffffffffffffffffffffffffffffffffffffffff166370a08231306040518263ffffffff1660e01b8152600401610cb09190611eef565b60206040518083038186803b158015610cc857600080fd5b505afa158015610cdc573d6000803e3d6000fd5b505050506040513d601f19601f82011682018060405250810190610d009190611ac6565b1015610d41576040517f08c379a0000000000000000000000000000000000000000000000000000000008152600401610d389061200d565b60405180910390fd5b8373ffffffffffffffffffffffffffffffffffffffff1663a9059cbb33836040518363ffffffff1660e01b8152600401610d7c929190611f0a565b602060405180830381600087803b158015610d9657600080fd5b505af1158015610daa573d6000803e3d6000fd5b505050506040513d601f19601f82011682018060405250810190610dce91906119bb565b50610dd983836111c6565b7f1d9800858c73141c1dd34039c3ecdb5cd06a8d28d83c9279342e5cc7304d5db53382604051610e0a929190611f0a565b60405180910390a1505050505050565b600080610e2784846103e2565b8051906020012090508060005260005191505092915050565b6000610f0e600460008473ffffffffffffffffffffffffffffffffffffffff1673ffffffffffffffffffffffffffffffffffffffff168152602001908152602001600020805480602002602001604051908101604052809291908181526020016000905b82821015610f05578382906000526020600020906003020160405180606001604052908160008201548152602001600182015481526020016002820160009054906101000a900460ff16151515158152505081526020019060010190610ea4565b50505050611130565b9050919050565b606060036000836bffffffffffffffffffffffff19166bffffffffffffffffffffffff19168152602001908152602001600020805480602002602001604051908101604052809291908181526020016000905b82821015610fc9578382906000526020600020906003020160405180606001604052908160008201548152602001600182015481526020016002820160009054906101000a900460ff16151515158152505081526020019060010190610f68565b505050509050919050565b610fdc61096c565b61101b576040517f08c379a000000000000000000000000000000000000000000000000000000000815260040161101290611fcd565b60405180910390fd5b60005b81518110156110d85760036000846bffffffffffffffffffffffff19166bffffffffffffffffffffffff1916815260200190815260200160002082828151811061106457fe5b60200260200101519080600181540180825580915050600190039060005260206000209060030201600090919091909150600082015181600001556020820151816001015560408201518160020160006101000a81548160ff0219169083151502179055505050808060010191505061101e565b505050565b6110e561096c565b611124576040517f08c379a000000000000000000000000000000000000000000000000000000000815260040161111b90611fcd565b60405180910390fd5b61112d81611454565b50565b60008060009050600043905060005b84518110156111b3578185828151811061115557fe5b60200260200101516000015110158015611184575084818151811061117657fe5b602002602001015160400151155b156111a65784818151811061119557fe5b602002602001015160200151830192505b808060010191505061113f565b508192505050919050565b600033905090565b60004390506060600460008573ffffffffffffffffffffffffffffffffffffffff1673ffffffffffffffffffffffffffffffffffffffff168152602001908152602001600020805480602002602001604051908101604052809291908181526020016000905b8282101561128d578382906000526020600020906003020160405180606001604052908160008201548152602001600182015481526020016002820160009054906101000a900460ff1615151515815250508152602001906001019061122c565b50505050905060005b815181101561131257828282815181106112ac57fe5b602002602001015160000151101580156112db57508181815181106112cd57fe5b602002602001015160400151155b156113055760018282815181106112ee57fe5b602002602001015160400190151590811515815250505b8080600101915050611296565b50606060036000856bffffffffffffffffffffffff19166bffffffffffffffffffffffff19168152602001908152602001600020805480602002602001604051908101604052809291908181526020016000905b828210156113c7578382906000526020600020906003020160405180606001604052908160008201548152602001600182015481526020016002820160009054906101000a900460ff16151515158152505081526020019060010190611366565b50505050905060005b815181101561144c57838282815181106113e657fe5b60200260200101516000015110158015611415575081818151811061140757fe5b602002602001015160400151155b1561143f57600182828151811061142857fe5b602002602001015160400190151590811515815250505b80806001019150506113d0565b505050505050565b600073ffffffffffffffffffffffffffffffffffffffff168173ffffffffffffffffffffffffffffffffffffffff1614156114c4576040517f08c379a00000000000000000000000000000000000000000000000000000000081526004016114bb90611fad565b60405180910390fd5b8073ffffffffffffffffffffffffffffffffffffffff1660008054906101000a900473ffffffffffffffffffffffffffffffffffffffff1673ffffffffffffffffffffffffffffffffffffffff167f8be0079c531659141344cd1fd0a4f28419497f9722a3daafe3b4186f6b6457e060405160405180910390a3806000806101000a81548173ffffffffffffffffffffffffffffffffffffffff021916908373ffffffffffffffffffffffffffffffffffffffff16021790555050565b600081359050611590816122a1565b92915050565b600082601f8301126115a757600080fd5b81356115ba6115b582612075565b612048565b9150818183526020840193506020810190508360005b8381101561160057813586016115e6888261176a565b8452602084019350602083019250506001810190506115d0565b5050505092915050565b600082601f83011261161b57600080fd5b813561162e6116298261209d565b612048565b9150818183526020840193506020810190508360005b83811015611674578135860161165a88826117ce565b845260208401935060208301925050600181019050611644565b5050505092915050565b600082601f83011261168f57600080fd5b81356116a261169d826120c5565b612048565b915081818352602084019350602081019050838560608402820111156116c757600080fd5b60005b838110156116f757816116dd8882611832565b8452602084019350606083019250506001810190506116ca565b5050505092915050565b600081359050611710816122b8565b92915050565b600081519050611725816122b8565b92915050565b60008135905061173a816122cf565b92915050565b60008135905061174f816122e6565b92915050565b600081519050611764816122e6565b92915050565b60006040828403121561177c57600080fd5b6117866040612048565b9050600061179684828501611581565b600083015250602082013567ffffffffffffffff8111156117b657600080fd5b6117c28482850161167e565b60208301525092915050565b6000604082840312156117e057600080fd5b6117ea6040612048565b905060006117fa8482850161172b565b600083015250602082013567ffffffffffffffff81111561181a57600080fd5b6118268482850161167e565b60208301525092915050565b60006060828403121561184457600080fd5b61184e6060612048565b9050600061185e84828501611892565b600083015250602061187284828501611892565b602083015250604061188684828501611701565b60408301525092915050565b6000813590506118a1816122fd565b92915050565b6000815190506118b6816122fd565b92915050565b6000602082840312156118ce57600080fd5b60006118dc84828501611581565b91505092915050565b600080604083850312156118f857600080fd5b600061190685828601611581565b925050602083013567ffffffffffffffff81111561192357600080fd5b61192f8582860161167e565b9150509250929050565b60006020828403121561194b57600080fd5b600082013567ffffffffffffffff81111561196557600080fd5b61197184828501611596565b91505092915050565b60006020828403121561198c57600080fd5b600082013567ffffffffffffffff8111156119a657600080fd5b6119b28482850161160a565b91505092915050565b6000602082840312156119cd57600080fd5b60006119db84828501611716565b91505092915050565b6000602082840312156119f657600080fd5b6000611a048482850161172b565b91505092915050565b60008060408385031215611a2057600080fd5b6000611a2e8582860161172b565b925050602083013567ffffffffffffffff811115611a4b57600080fd5b611a578582860161167e565b9150509250929050565b600060208284031215611a7357600080fd5b6000611a8184828501611755565b91505092915050565b60008060408385031215611a9d57600080fd5b6000611aab85828601611740565b9250506020611abc85828601611740565b9150509250929050565b600060208284031215611ad857600080fd5b6000611ae6848285016118a7565b91505092915050565b6000611afb8383611dfa565b60608301905092915050565b611b1081612213565b82525050565b611b1f81612169565b82525050565b6000611b30826120fd565b611b3a8185612120565b9350611b45836120ed565b8060005b83811015611b76578151611b5d8882611aef565b9750611b6883612113565b925050600181019050611b49565b5085935050505092915050565b611b8c8161217b565b82525050565b611b9b8161217b565b82525050565b611bb2611bad82612187565b61227c565b82525050565b611bc1816121b3565b82525050565b611bd8611bd3826121df565b612286565b82525050565b6000611be982612108565b611bf38185612131565b9350611c03818560208601612249565b611c0c81612290565b840191505092915050565b6000611c2282612108565b611c2c8185612142565b9350611c3c818560208601612249565b80840191505092915050565b6000611c5560268361214d565b91507f4f776e61626c653a206e6577206f776e657220697320746865207a65726f206160008301527f64647265737300000000000000000000000000000000000000000000000000006020830152604082019050919050565b6000611cbb60048361215e565b91507f30783034000000000000000000000000000000000000000000000000000000006000830152600482019050919050565b6000611cfb60208361214d565b91507f4f776e61626c653a2063616c6c6572206973206e6f7420746865206f776e65726000830152602082019050919050565b6000611d3b603e8361214d565b91507f6d73672e73656e646572206d75737420657175616c207468652065746865726560008301527f756d20616464726573732066726f6d20746865207075626c6963206b657900006020830152604082019050919050565b6000611da160298361214d565b91507f4d6967726174696f6e20436f6e74726163742068617320696e7375666669636960008301527f656e742066756e647300000000000000000000000000000000000000000000006020830152604082019050919050565b606082016000820151611e106000850182611e3c565b506020820151611e236020850182611e3c565b506040820151611e366040850182611b83565b50505050565b611e4581612209565b82525050565b611e5481612209565b82525050565b6000611e668285611ba1565b600182019150611e768284611bc7565b6020820191508190509392505050565b6000611e928284611bc7565b60208201915081905092915050565b6000611ead8284611c17565b915081905092915050565b6000611ec382611cae565b9150611ecf8285611bc7565b602082019150611edf8284611bc7565b6020820191508190509392505050565b6000602082019050611f046000830184611b16565b92915050565b6000604082019050611f1f6000830185611b07565b611f2c6020830184611e4b565b9392505050565b60006020820190508181036000830152611f4d8184611b25565b905092915050565b6000602082019050611f6a6000830184611b92565b92915050565b6000602082019050611f856000830184611bb8565b92915050565b60006020820190508181036000830152611fa58184611bde565b905092915050565b60006020820190508181036000830152611fc681611c48565b9050919050565b60006020820190508181036000830152611fe681611cee565b9050919050565b6000602082019050818103600083015261200681611d2e565b9050919050565b6000602082019050818103600083015261202681611d94565b9050919050565b60006020820190506120426000830184611e4b565b92915050565b6000604051905081810181811067ffffffffffffffff8211171561206b57600080fd5b8060405250919050565b600067ffffffffffffffff82111561208c57600080fd5b602082029050602081019050919050565b600067ffffffffffffffff8211156120b457600080fd5b602082029050602081019050919050565b600067ffffffffffffffff8211156120dc57600080fd5b602082029050602081019050919050565b6000819050602082019050919050565b600081519050919050565b600081519050919050565b6000602082019050919050565b600082825260208201905092915050565b600082825260208201905092915050565b600081905092915050565b600082825260208201905092915050565b600081905092915050565b6000612174826121e9565b9050919050565b60008115159050919050565b60007fff0000000000000000000000000000000000000000000000000000000000000082169050919050565b60007fffffffffffffffffffffffffffffffffffffffff00000000000000000000000082169050919050565b6000819050919050565b600073ffffffffffffffffffffffffffffffffffffffff82169050919050565b6000819050919050565b600061221e82612225565b9050919050565b600061223082612237565b9050919050565b6000612242826121e9565b9050919050565b60005b8381101561226757808201518184015260208101905061224c565b83811115612276576000848401525b50505050565b6000819050919050565b6000819050919050565b6000601f19601f8301169050919050565b6122aa81612169565b81146122b557600080fd5b50565b6122c18161217b565b81146122cc57600080fd5b50565b6122d8816121b3565b81146122e357600080fd5b50565b6122ef816121df565b81146122fa57600080fd5b50565b61230681612209565b811461231157600080fd5b5056fea2646970667358221220c656067bb8d50a8a7702b260ffc4c69d79b368950e11e24f4ef70c92ef86f17264736f6c634300060c0033",
  "immutableReferences": {},
  "source": "// SPDX-License-Identifier: MIT\n// Redfox migration \n\n/**\n * Redfox migration script\n * Stores 2 arrays of structures that detail the amount and blockheight of when the amount\n * should be available from. \n **/\n\npragma solidity ^0.6.2;\npragma experimental ABIEncoderV2;\n\nimport \"../node_modules/openzeppelin-solidity/contracts/ownership/Ownable.sol\";\nimport \"../node_modules/openzeppelin-solidity/contracts/token/ERC20/ERC20.sol\";\n\ncontract RedFoxMigration is Ownable{\n\n    mapping (bytes20 => uint256) private _balances;\n    address private _tokenContract;\n    \n    struct TimedBalance {\n        uint256 blockHeight;\n        uint256 amount;\n        bool paid;\n    }\n    \n    struct SetRBalance {\n        bytes20 account;\n        TimedBalance[] balances;\n    }\n    \n    struct SetEthBalance {\n        address account;\n        TimedBalance[] balances;\n    }\n    \n    //for balances with an r address\n    mapping (bytes20 => TimedBalance[]) private _rbalances;\n    //for balances with an ethereum address\n    mapping (address => TimedBalance[]) private _ebalances;\n\n    event RedFoxMigrated(address account,uint256 amount);\n\n    constructor(address tokenContract) public {\n        _tokenContract = tokenContract;\n    } \n\n    function checkTokenBalance() public view returns(uint256){\n        ERC20 redFoxToken = ERC20(_tokenContract);\n        return redFoxToken.balanceOf(address(this));\n    }\n\n    function setRAccountBalances(SetRBalance[] memory balances) public onlyOwner{\n        for (uint i=0; i < balances.length; i++){\n            setRAccountBalance(balances[i].account,balances[i].balances);\n        }\n    }\n\n    function setRAccountBalance(bytes20 account, TimedBalance[] memory balances) public onlyOwner{\n        for(uint256 i = 0; i < balances.length; i++){\n            _rbalances[account].push(balances[i]);\n        }\n//        _rbalances[account] = balances;\n    }\n\n    function setEthAccountBalances(SetEthBalance[] memory balances) public onlyOwner{\n        for (uint i=0; i < balances.length; i++){\n            setEthAccountBalance(balances[i].account,balances[i].balances);\n        }\n    }\n\n    function setEthAccountBalance(address ethAddress, TimedBalance[] memory balances) public onlyOwner{\n        for(uint256 i = 0; i < balances.length; i++){\n            _ebalances[ethAddress].push(balances[i]);\n        }\n    }\n\n    function balancesOfEthAccount(address ethAddress) public view returns (TimedBalance[] memory) {\n        return _ebalances[ethAddress];\n    }\n\n    function balancesOfRAccount(bytes20 rAddress) public view returns (TimedBalance[] memory) {\n        return _rbalances[rAddress];\n    }\n    \n    function availableAmount(TimedBalance[] memory balances) private view returns (uint256) {\n        uint256 totalBalance = 0;\n         uint currentBlockHeight = block.number;\n        for(uint256 i = 0; i < balances.length; i++){\n            if(balances[i].blockHeight >= currentBlockHeight && !balances[i].paid){\n                totalBalance += balances[i].amount;\n            }\n        }\n        return totalBalance;\n    }\n    \n    function updateBalances(address ethAddress,bytes20 accountRef) private view {\n        //process the ethereum balances\n        uint currentBlockHeight = block.number;\n        TimedBalance[] memory ethBalances = _ebalances[ethAddress];\n        for(uint256 i = 0; i < ethBalances.length; i++){\n            if(ethBalances[i].blockHeight >= currentBlockHeight && !ethBalances[i].paid){\n                ethBalances[i].paid = true;\n            }\n        }\n        //process the r balances\n        TimedBalance[] memory rBalances = _rbalances[accountRef];\n        for(uint256 i = 0; i < rBalances.length; i++){\n            if(rBalances[i].blockHeight >= currentBlockHeight && !rBalances[i].paid){\n                rBalances[i].paid = true;\n            }\n        }\n    }\n\n    function availableBalanceEthAddress(address ethAddress) public view returns(uint256){\n        return availableAmount(_ebalances[ethAddress]);\n    }\n\n    function availableBalanceRAddress(bytes20 account) public view returns (uint256) {\n        return availableAmount(_rbalances[account]);\n    }\n\n    function balanceFromKey(bytes32 publicKeyX,bytes32 publicKeyY) public view returns (uint256) {\n        uint256 totalBalance = 0;\n        bytes20 accountReference = getAccountReference(publicKeyX,publicKeyY);\n        address ethAddress = getEthereumAddress(publicKeyY,publicKeyY);\n        totalBalance += availableBalanceRAddress(accountReference);\n        totalBalance += availableBalanceEthAddress(ethAddress);\n        return totalBalance;\n    }\n\n    function withdrawBalance(bytes32 publicKeyX,bytes32 publicKeyY) public {\n        ERC20 redFoxToken = ERC20(_tokenContract);\n        address ethAddress = getEthereumAddress(publicKeyX,publicKeyY);\n        \n        //check that the public key matches the msg.sender\n        require(msg.sender == ethAddress,\n            \"msg.sender must equal the ethereum address from the public key\");\n        \n        //retrieve the balance from the public key\n        bytes20 accountRef = getAccountReference(publicKeyX,publicKeyY);\n        uint256 withdrawAmount = availableBalanceEthAddress(ethAddress) + availableBalanceRAddress(accountRef);\n        \n        //check that the balance allocated to this contract is enough to cover the withdrawal\n        require(redFoxToken.balanceOf(address(this))>=withdrawAmount,\"Migration Contract has insufficient funds\");\n        \n        //send the balance to the msg.sender\n        redFoxToken.transfer(msg.sender,withdrawAmount);\n        \n        //mark the items as paid\n        updateBalances(ethAddress,accountRef);\n        emit RedFoxMigrated(msg.sender,withdrawAmount);\n    }\n\n\n\n    /** \n    * returns an ethereum address from a public key\n    **/\n    function getEthereumAddress(bytes32 publicKeyX,bytes32 publicKeyY) public pure returns(address addr){\n        bytes32 hash = keccak256(getUncompressedPublicKey(publicKeyX,publicKeyY));\n        assembly {\n            mstore(0, hash)\n            addr := mload(0)\n        }    \n    }\n    \n    /**\n    * returns a bytes20 corresponding to the ripemd(sha256())) of the compressed public key\n    **/\n    function getAccountReference(bytes32 publicKeyX,bytes32 publicKeyY) public pure returns(bytes20){\n        bytes memory compressedPublicKey = getCompressedPublicKey(publicKeyX,publicKeyY);\n        bytes32 firstSha256 = sha256(compressedPublicKey);\n        bytes20 ripemd = ripemd160(abi.encodePacked(firstSha256));\n        return ripemd;        \n    }\n    \n    /**\n     * returns the public key in an uncompressed format\n     **/\n    function getUncompressedPublicKey(bytes32 publicKeyX,bytes32 publicKeyY) public pure returns(bytes memory){\n        return abi.encodePacked(\"0x04\",publicKeyX,publicKeyY);\n    }\n    \n    /**\n     * returns the public key in an compressed format\n     **/\n    function getCompressedPublicKey(bytes32 publicKeyX,bytes32 publicKeyY) public pure returns(bytes memory){\n        uint256 yAsInt = uint256(publicKeyY);\n        uint8 yOdd = uint8(yAsInt&1);\n        byte leadingByte;\n        if(yOdd == 1) \n            leadingByte = 0x03; \n        else \n            leadingByte = 0x02;\n        bytes memory cPublicKey = abi.encodePacked(leadingByte,publicKeyX);\n        return cPublicKey;\n    }\n    \n\n\n}\n",
  "sourcePath": "/Volumes/UsersSSD/james/Development/redfox/contracts/RedFoxMigration.sol",
  "compiler": {
    "name": "solc",
    "version": "0.6.12+commit.27d51765.Emscripten.clang"
  },
  "schemaVersion": "3.3.0",
  "updatedAt": "2020-10-13T16:45:48.268Z",
  "devdoc": {
    "kind": "dev",
    "methods": {
      "isOwner()": {
        "details": "Returns true if the caller is the current owner."
      },
      "owner()": {
        "details": "Returns the address of the current owner."
      },
      "renounceOwnership()": {
        "details": "Leaves the contract without owner. It will not be possible to call `onlyOwner` functions anymore. Can only be called by the current owner. NOTE: Renouncing ownership will leave the contract without an owner, thereby removing any functionality that is only available to the owner."
      },
      "transferOwnership(address)": {
        "details": "Transfers ownership of the contract to a new account (`newOwner`). Can only be called by the current owner."
      }
    },
    "version": 1
  },
  "userdoc": {
    "kind": "user",
    "methods": {
      "getAccountReference(bytes32,bytes32)": {
        "notice": "returns a bytes20 corresponding to the ripemd(sha256())) of the compressed public key*"
      },
      "getCompressedPublicKey(bytes32,bytes32)": {
        "notice": "returns the public key in an compressed format*"
      },
      "getEthereumAddress(bytes32,bytes32)": {
        "notice": "returns an ethereum address from a public key*"
      },
      "getUncompressedPublicKey(bytes32,bytes32)": {
        "notice": "returns the public key in an uncompressed format*"
      }
    },
    "version": 1
  }
}