{
  "contractName": "RedFoxMigration",
  "abi": [
    {
      "anonymous": false,
      "inputs": [
        {
          "indexed": true,
          "internalType": "address",
          "name": "previousOwner",
          "type": "address"
        },
        {
          "indexed": true,
          "internalType": "address",
          "name": "newOwner",
          "type": "address"
        }
      ],
      "name": "OwnershipTransferred",
      "type": "event"
    },
    {
      "anonymous": false,
      "inputs": [
        {
          "indexed": false,
          "internalType": "address",
          "name": "account",
          "type": "address"
        },
        {
          "indexed": false,
          "internalType": "uint256",
          "name": "amount",
          "type": "uint256"
        }
      ],
      "name": "RedFoxMigrated",
      "type": "event"
    },
    {
      "inputs": [],
      "name": "owner",
      "outputs": [
        {
          "internalType": "address",
          "name": "",
          "type": "address"
        }
      ],
      "stateMutability": "view",
      "type": "function"
    },
    {
      "inputs": [],
      "name": "renounceOwnership",
      "outputs": [],
      "stateMutability": "nonpayable",
      "type": "function"
    },
    {
      "inputs": [
        {
          "internalType": "address",
          "name": "newOwner",
          "type": "address"
        }
      ],
      "name": "transferOwnership",
      "outputs": [],
      "stateMutability": "nonpayable",
      "type": "function"
    },
    {
      "inputs": [
        {
          "internalType": "address",
          "name": "tokenContract",
          "type": "address"
        }
      ],
      "name": "setTokenContract",
      "outputs": [],
      "stateMutability": "nonpayable",
      "type": "function"
    },
    {
      "inputs": [],
      "name": "checkTokenBalance",
      "outputs": [
        {
          "internalType": "uint256",
          "name": "",
          "type": "uint256"
        }
      ],
      "stateMutability": "view",
      "type": "function"
    },
    {
      "inputs": [
        {
          "components": [
            {
              "internalType": "bytes20",
              "name": "account",
              "type": "bytes20"
            },
            {
              "components": [
                {
                  "internalType": "uint256",
                  "name": "blockHeight",
                  "type": "uint256"
                },
                {
                  "internalType": "uint256",
                  "name": "amount",
                  "type": "uint256"
                },
                {
                  "internalType": "bool",
                  "name": "paid",
                  "type": "bool"
                }
              ],
              "internalType": "struct RedFoxMigration.TimedBalance[]",
              "name": "balances",
              "type": "tuple[]"
            }
          ],
          "internalType": "struct RedFoxMigration.SetRBalance[]",
          "name": "balances",
          "type": "tuple[]"
        }
      ],
      "name": "setRAccountBalances",
      "outputs": [],
      "stateMutability": "nonpayable",
      "type": "function"
    },
    {
      "inputs": [
        {
          "internalType": "bytes20",
          "name": "account",
          "type": "bytes20"
        },
        {
          "components": [
            {
              "internalType": "uint256",
              "name": "blockHeight",
              "type": "uint256"
            },
            {
              "internalType": "uint256",
              "name": "amount",
              "type": "uint256"
            },
            {
              "internalType": "bool",
              "name": "paid",
              "type": "bool"
            }
          ],
          "internalType": "struct RedFoxMigration.TimedBalance[]",
          "name": "balances",
          "type": "tuple[]"
        }
      ],
      "name": "setRAccountBalance",
      "outputs": [],
      "stateMutability": "nonpayable",
      "type": "function"
    },
    {
      "inputs": [
        {
          "components": [
            {
              "internalType": "address",
              "name": "account",
              "type": "address"
            },
            {
              "components": [
                {
                  "internalType": "uint256",
                  "name": "blockHeight",
                  "type": "uint256"
                },
                {
                  "internalType": "uint256",
                  "name": "amount",
                  "type": "uint256"
                },
                {
                  "internalType": "bool",
                  "name": "paid",
                  "type": "bool"
                }
              ],
              "internalType": "struct RedFoxMigration.TimedBalance[]",
              "name": "balances",
              "type": "tuple[]"
            }
          ],
          "internalType": "struct RedFoxMigration.SetEthBalance[]",
          "name": "balances",
          "type": "tuple[]"
        }
      ],
      "name": "setEthAccountBalances",
      "outputs": [],
      "stateMutability": "nonpayable",
      "type": "function"
    },
    {
      "inputs": [
        {
          "internalType": "address",
          "name": "ethAddress",
          "type": "address"
        },
        {
          "components": [
            {
              "internalType": "uint256",
              "name": "blockHeight",
              "type": "uint256"
            },
            {
              "internalType": "uint256",
              "name": "amount",
              "type": "uint256"
            },
            {
              "internalType": "bool",
              "name": "paid",
              "type": "bool"
            }
          ],
          "internalType": "struct RedFoxMigration.TimedBalance[]",
          "name": "balances",
          "type": "tuple[]"
        }
      ],
      "name": "setEthAccountBalance",
      "outputs": [],
      "stateMutability": "nonpayable",
      "type": "function"
    },
    {
      "inputs": [
        {
          "internalType": "address",
          "name": "ethAddress",
          "type": "address"
        }
      ],
      "name": "getEthAccountBalances",
      "outputs": [
        {
          "components": [
            {
              "internalType": "uint256",
              "name": "blockHeight",
              "type": "uint256"
            },
            {
              "internalType": "uint256",
              "name": "amount",
              "type": "uint256"
            },
            {
              "internalType": "bool",
              "name": "paid",
              "type": "bool"
            }
          ],
          "internalType": "struct RedFoxMigration.TimedBalance[]",
          "name": "",
          "type": "tuple[]"
        }
      ],
      "stateMutability": "view",
      "type": "function"
    },
    {
      "inputs": [
        {
          "internalType": "bytes20",
          "name": "rAddress",
          "type": "bytes20"
        }
      ],
      "name": "getRAccountBalances",
      "outputs": [
        {
          "components": [
            {
              "internalType": "uint256",
              "name": "blockHeight",
              "type": "uint256"
            },
            {
              "internalType": "uint256",
              "name": "amount",
              "type": "uint256"
            },
            {
              "internalType": "bool",
              "name": "paid",
              "type": "bool"
            }
          ],
          "internalType": "struct RedFoxMigration.TimedBalance[]",
          "name": "",
          "type": "tuple[]"
        }
      ],
      "stateMutability": "view",
      "type": "function"
    },
    {
      "inputs": [
        {
          "internalType": "address",
          "name": "ethAddress",
          "type": "address"
        }
      ],
      "name": "getEthAccountAvailable",
      "outputs": [
        {
          "internalType": "uint256",
          "name": "",
          "type": "uint256"
        }
      ],
      "stateMutability": "view",
      "type": "function"
    },
    {
      "inputs": [
        {
          "internalType": "bytes20",
          "name": "account",
          "type": "bytes20"
        }
      ],
      "name": "getRAccountAvailable",
      "outputs": [
        {
          "internalType": "uint256",
          "name": "",
          "type": "uint256"
        }
      ],
      "stateMutability": "view",
      "type": "function"
    },
    {
      "inputs": [
        {
          "internalType": "bytes32",
          "name": "publicKeyX",
          "type": "bytes32"
        },
        {
          "internalType": "bytes32",
          "name": "publicKeyY",
          "type": "bytes32"
        }
      ],
      "name": "balanceOf",
      "outputs": [
        {
          "internalType": "uint256",
          "name": "",
          "type": "uint256"
        }
      ],
      "stateMutability": "view",
      "type": "function"
    },
    {
      "inputs": [
        {
          "internalType": "bytes32",
          "name": "publicKeyX",
          "type": "bytes32"
        },
        {
          "internalType": "bytes32",
          "name": "publicKeyY",
          "type": "bytes32"
        }
      ],
      "name": "withdrawBalance",
      "outputs": [],
      "stateMutability": "nonpayable",
      "type": "function"
    },
    {
      "inputs": [
        {
          "internalType": "bytes32",
          "name": "publicKeyX",
          "type": "bytes32"
        },
        {
          "internalType": "bytes32",
          "name": "publicKeyY",
          "type": "bytes32"
        }
      ],
      "name": "getEthereumAddress",
      "outputs": [
        {
          "internalType": "address",
          "name": "addr",
          "type": "address"
        }
      ],
      "stateMutability": "pure",
      "type": "function"
    },
    {
      "inputs": [
        {
          "internalType": "bytes32",
          "name": "publicKeyX",
          "type": "bytes32"
        },
        {
          "internalType": "bytes32",
          "name": "publicKeyY",
          "type": "bytes32"
        }
      ],
      "name": "getAccountReference",
      "outputs": [
        {
          "internalType": "bytes20",
          "name": "",
          "type": "bytes20"
        }
      ],
      "stateMutability": "pure",
      "type": "function"
    }
  ],
  "bytecode": "0x608060405234801561001057600080fd5b5060006100216100c460201b60201c565b9050806000806101000a81548173ffffffffffffffffffffffffffffffffffffffff021916908373ffffffffffffffffffffffffffffffffffffffff1602179055508073ffffffffffffffffffffffffffffffffffffffff16600073ffffffffffffffffffffffffffffffffffffffff167f8be0079c531659141344cd1fd0a4f28419497f9722a3daafe3b4186f6b6457e060405160405180910390a3506100cc565b600033905090565b61249a806100db6000396000f3fe608060405234801561001057600080fd5b506004361061010b5760003560e01c80638da5cb5b116100a2578063c56c5cfe11610071578063c56c5cfe146102b6578063cf1c6de0146102d2578063e80f95d114610302578063f2fde38b1461031e578063f9c4b0411461033a5761010b565b80638da5cb5b146102305780639d77097a1461024e578063b1ffc03e1461026a578063bbcd5bbe1461029a5761010b565b80636623a0bd116100de5780636623a0bd146101aa5780636dfa91c4146101da578063715018a6146101f657806384b3f29b146102005761010b565b80630a014600146101105780630ea695a8146101405780634f731087146101705780635e6639ea1461018e575b600080fd5b61012a60048036038101906101259190611cd7565b61036a565b604051610137919061210f565b60405180910390f35b61015a60048036038101906101559190611c31565b610434565b60405161016791906121aa565b60405180910390f35b6101786104fb565b60405161018591906121aa565b60405180910390f35b6101a860048036038101906101a39190611bc7565b6105b2565b005b6101c460048036038101906101bf9190611c31565b61069c565b6040516101d191906120ed565b60405180910390f35b6101f460048036038101906101ef9190611b86565b61075b565b005b6101fe610845565b005b61021a60048036038101906102159190611b09565b610998565b60405161022791906121aa565b60405180910390f35b610238610a6d565b60405161024591906120a9565b60405180910390f35b61026860048036038101906102639190611b32565b610a96565b005b610284600480360381019061027f9190611cd7565b610bfb565b60405161029191906121aa565b60405180910390f35b6102b460048036038101906102af9190611b09565b610c44565b005b6102d060048036038101906102cb9190611cd7565b610d1d565b005b6102ec60048036038101906102e79190611cd7565b610f89565b6040516102f991906120a9565b60405180910390f35b61031c60048036038101906103179190611c5a565b610fc7565b005b61033860048036038101906103339190611b09565b61111e565b005b610354600480360381019061034f9190611b09565b6112e0565b60405161036191906120ed565b60405180910390f35b6000606061037884846113ad565b9050600060028260405161038c9190612092565b602060405180830381855afa1580156103a9573d6000803e3d6000fd5b5050506040513d601f19601f820116820180604052508101906103cc9190611cae565b905060006003826040516020016103e3919061204b565b6040516020818303038152906040526040516103ff9190612092565b602060405180830381855afa15801561041c573d6000803e3d6000fd5b5050506040515160601b905080935050505092915050565b60006104f460026000846bffffffffffffffffffffffff19166bffffffffffffffffffffffff19168152602001908152602001600020805480602002602001604051908101604052809291908181526020016000905b828210156104eb578382906000526020600020906003020160405180606001604052908160008201548152602001600182015481526020016002820160009054906101000a900460ff1615151515815250508152602001906001019061048a565b50505050611414565b9050919050565b600080600160009054906101000a900473ffffffffffffffffffffffffffffffffffffffff1690508073ffffffffffffffffffffffffffffffffffffffff166370a08231306040518263ffffffff1660e01b815260040161055c91906120a9565b60206040518083038186803b15801561057457600080fd5b505afa158015610588573d6000803e3d6000fd5b505050506040513d601f19601f820116820180604052508101906105ac9190611d13565b91505090565b6105ba6114a8565b73ffffffffffffffffffffffffffffffffffffffff1660008054906101000a900473ffffffffffffffffffffffffffffffffffffffff1673ffffffffffffffffffffffffffffffffffffffff1614610647576040517f08c379a000000000000000000000000000000000000000000000000000000000815260040161063e9061214a565b60405180910390fd5b60005b81518110156106985761068b82828151811061066257fe5b60200260200101516000015183838151811061067a57fe5b602002602001015160200151610fc7565b808060010191505061064a565b5050565b606060026000836bffffffffffffffffffffffff19166bffffffffffffffffffffffff19168152602001908152602001600020805480602002602001604051908101604052809291908181526020016000905b82821015610750578382906000526020600020906003020160405180606001604052908160008201548152602001600182015481526020016002820160009054906101000a900460ff161515151581525050815260200190600101906106ef565b505050509050919050565b6107636114a8565b73ffffffffffffffffffffffffffffffffffffffff1660008054906101000a900473ffffffffffffffffffffffffffffffffffffffff1673ffffffffffffffffffffffffffffffffffffffff16146107f0576040517f08c379a00000000000000000000000000000000000000000000000000000000081526004016107e79061214a565b60405180910390fd5b60005b81518110156108415761083482828151811061080b57fe5b60200260200101516000015183838151811061082357fe5b602002602001015160200151610a96565b80806001019150506107f3565b5050565b61084d6114a8565b73ffffffffffffffffffffffffffffffffffffffff1660008054906101000a900473ffffffffffffffffffffffffffffffffffffffff1673ffffffffffffffffffffffffffffffffffffffff16146108da576040517f08c379a00000000000000000000000000000000000000000000000000000000081526004016108d19061214a565b60405180910390fd5b600073ffffffffffffffffffffffffffffffffffffffff1660008054906101000a900473ffffffffffffffffffffffffffffffffffffffff1673ffffffffffffffffffffffffffffffffffffffff167f8be0079c531659141344cd1fd0a4f28419497f9722a3daafe3b4186f6b6457e060405160405180910390a360008060006101000a81548173ffffffffffffffffffffffffffffffffffffffff021916908373ffffffffffffffffffffffffffffffffffffffff160217905550565b6000610a66600360008473ffffffffffffffffffffffffffffffffffffffff1673ffffffffffffffffffffffffffffffffffffffff168152602001908152602001600020805480602002602001604051908101604052809291908181526020016000905b82821015610a5d578382906000526020600020906003020160405180606001604052908160008201548152602001600182015481526020016002820160009054906101000a900460ff161515151581525050815260200190600101906109fc565b50505050611414565b9050919050565b60008060009054906101000a900473ffffffffffffffffffffffffffffffffffffffff16905090565b610a9e6114a8565b73ffffffffffffffffffffffffffffffffffffffff1660008054906101000a900473ffffffffffffffffffffffffffffffffffffffff1673ffffffffffffffffffffffffffffffffffffffff1614610b2b576040517f08c379a0000000000000000000000000000000000000000000000000000000008152600401610b229061214a565b60405180910390fd5b60005b8151811015610bf657600360008473ffffffffffffffffffffffffffffffffffffffff1673ffffffffffffffffffffffffffffffffffffffff168152602001908152602001600020828281518110610b8257fe5b60200260200101519080600181540180825580915050600190039060005260206000209060030201600090919091909150600082015181600001556020820151816001015560408201518160020160006101000a81548160ff02191690831515021790555050508080600101915050610b2e565b505050565b600080600090506000610c0e858561036a565b90506000610c1c8686610f89565b9050610c2782610434565b83019250610c3481610998565b8301925082935050505092915050565b610c4c6114a8565b73ffffffffffffffffffffffffffffffffffffffff1660008054906101000a900473ffffffffffffffffffffffffffffffffffffffff1673ffffffffffffffffffffffffffffffffffffffff1614610cd9576040517f08c379a0000000000000000000000000000000000000000000000000000000008152600401610cd09061214a565b60405180910390fd5b80600160006101000a81548173ffffffffffffffffffffffffffffffffffffffff021916908373ffffffffffffffffffffffffffffffffffffffff16021790555050565b6000600160009054906101000a900473ffffffffffffffffffffffffffffffffffffffff1690506000610d508484610f89565b90508073ffffffffffffffffffffffffffffffffffffffff163373ffffffffffffffffffffffffffffffffffffffff1614610dc0576040517f08c379a0000000000000000000000000000000000000000000000000000000008152600401610db79061216a565b60405180910390fd5b6000610dcc858561036a565b90506000610dd982610434565b610de284610998565b019050808473ffffffffffffffffffffffffffffffffffffffff166370a08231306040518263ffffffff1660e01b8152600401610e1f91906120a9565b60206040518083038186803b158015610e3757600080fd5b505afa158015610e4b573d6000803e3d6000fd5b505050506040513d601f19601f82011682018060405250810190610e6f9190611d13565b1015610eb0576040517f08c379a0000000000000000000000000000000000000000000000000000000008152600401610ea79061218a565b60405180910390fd5b8373ffffffffffffffffffffffffffffffffffffffff1663a9059cbb33836040518363ffffffff1660e01b8152600401610eeb9291906120c4565b602060405180830381600087803b158015610f0557600080fd5b505af1158015610f19573d6000803e3d6000fd5b505050506040513d601f19601f82011682018060405250810190610f3d9190611c08565b50610f4883836114b0565b7f1d9800858c73141c1dd34039c3ecdb5cd06a8d28d83c9279342e5cc7304d5db53382604051610f799291906120c4565b60405180910390a1505050505050565b6000808383604051602001610f9f929190612066565b6040516020818303038152906040528051906020012090508060005260005191505092915050565b610fcf6114a8565b73ffffffffffffffffffffffffffffffffffffffff1660008054906101000a900473ffffffffffffffffffffffffffffffffffffffff1673ffffffffffffffffffffffffffffffffffffffff161461105c576040517f08c379a00000000000000000000000000000000000000000000000000000000081526004016110539061214a565b60405180910390fd5b60005b81518110156111195760026000846bffffffffffffffffffffffff19166bffffffffffffffffffffffff191681526020019081526020016000208282815181106110a557fe5b60200260200101519080600181540180825580915050600190039060005260206000209060030201600090919091909150600082015181600001556020820151816001015560408201518160020160006101000a81548160ff0219169083151502179055505050808060010191505061105f565b505050565b6111266114a8565b73ffffffffffffffffffffffffffffffffffffffff1660008054906101000a900473ffffffffffffffffffffffffffffffffffffffff1673ffffffffffffffffffffffffffffffffffffffff16146111b3576040517f08c379a00000000000000000000000000000000000000000000000000000000081526004016111aa9061214a565b60405180910390fd5b600073ffffffffffffffffffffffffffffffffffffffff168173ffffffffffffffffffffffffffffffffffffffff161415611223576040517f08c379a000000000000000000000000000000000000000000000000000000000815260040161121a9061212a565b60405180910390fd5b8073ffffffffffffffffffffffffffffffffffffffff1660008054906101000a900473ffffffffffffffffffffffffffffffffffffffff1673ffffffffffffffffffffffffffffffffffffffff167f8be0079c531659141344cd1fd0a4f28419497f9722a3daafe3b4186f6b6457e060405160405180910390a3806000806101000a81548173ffffffffffffffffffffffffffffffffffffffff021916908373ffffffffffffffffffffffffffffffffffffffff16021790555050565b6060600360008373ffffffffffffffffffffffffffffffffffffffff1673ffffffffffffffffffffffffffffffffffffffff168152602001908152602001600020805480602002602001604051908101604052809291908181526020016000905b828210156113a2578382906000526020600020906003020160405180606001604052908160008201548152602001600182015481526020016002820160009054906101000a900460ff16151515158152505081526020019060010190611341565b505050509050919050565b606060008260001c90506000600182169050600060018260ff1614156113d957600360f81b90506113e1565b600260f81b90505b606081876040516020016113f692919061201f565b60405160208183030381529060405290508094505050505092915050565b60008060009050600043905060005b845181101561149d5784818151811061143857fe5b602002602001015160000151821015801561146e57506000151585828151811061145e57fe5b6020026020010151604001511515145b156114905784818151811061147f57fe5b602002602001015160200151830192505b8080600101915050611423565b508192505050919050565b600033905090565b600043905060005b600360008573ffffffffffffffffffffffffffffffffffffffff1673ffffffffffffffffffffffffffffffffffffffff1681526020019081526020016000208054905081101561165a57600360008573ffffffffffffffffffffffffffffffffffffffff1673ffffffffffffffffffffffffffffffffffffffff168152602001908152602001600020818154811061154c57fe5b90600052602060002090600302016000015482101580156115d35750600360008573ffffffffffffffffffffffffffffffffffffffff1673ffffffffffffffffffffffffffffffffffffffff16815260200190815260200160002081815481106115b257fe5b906000526020600020906003020160020160009054906101000a900460ff16155b1561164d576001600360008673ffffffffffffffffffffffffffffffffffffffff1673ffffffffffffffffffffffffffffffffffffffff168152602001908152602001600020828154811061162457fe5b906000526020600020906003020160020160006101000a81548160ff0219169083151502179055505b80806001019150506114b8565b5060005b60026000846bffffffffffffffffffffffff19166bffffffffffffffffffffffff19168152602001908152602001600020805490508110156117c85760026000846bffffffffffffffffffffffff19166bffffffffffffffffffffffff1916815260200190815260200160002081815481106116d657fe5b906000526020600020906003020160000154821015801561174f575060026000846bffffffffffffffffffffffff19166bffffffffffffffffffffffff19168152602001908152602001600020818154811061172e57fe5b906000526020600020906003020160020160009054906101000a900460ff16155b156117bb57600160026000856bffffffffffffffffffffffff19166bffffffffffffffffffffffff19168152602001908152602001600020828154811061179257fe5b906000526020600020906003020160020160006101000a81548160ff0219169083151502179055505b808060010191505061165e565b50505050565b6000813590506117dd816123f1565b92915050565b600082601f8301126117f457600080fd5b8135611807611802826121f2565b6121c5565b9150818183526020840193506020810190508360005b8381101561184d578135860161183388826119b7565b84526020840193506020830192505060018101905061181d565b5050505092915050565b600082601f83011261186857600080fd5b813561187b6118768261221a565b6121c5565b9150818183526020840193506020810190508360005b838110156118c157813586016118a78882611a1b565b845260208401935060208301925050600181019050611891565b5050505092915050565b600082601f8301126118dc57600080fd5b81356118ef6118ea82612242565b6121c5565b9150818183526020840193506020810190508385606084028201111561191457600080fd5b60005b83811015611944578161192a8882611a7f565b845260208401935060608301925050600181019050611917565b5050505092915050565b60008135905061195d81612408565b92915050565b60008151905061197281612408565b92915050565b6000813590506119878161241f565b92915050565b60008135905061199c81612436565b92915050565b6000815190506119b181612436565b92915050565b6000604082840312156119c957600080fd5b6119d360406121c5565b905060006119e3848285016117ce565b600083015250602082013567ffffffffffffffff811115611a0357600080fd5b611a0f848285016118cb565b60208301525092915050565b600060408284031215611a2d57600080fd5b611a3760406121c5565b90506000611a4784828501611978565b600083015250602082013567ffffffffffffffff811115611a6757600080fd5b611a73848285016118cb565b60208301525092915050565b600060608284031215611a9157600080fd5b611a9b60606121c5565b90506000611aab84828501611adf565b6000830152506020611abf84828501611adf565b6020830152506040611ad38482850161194e565b60408301525092915050565b600081359050611aee8161244d565b92915050565b600081519050611b038161244d565b92915050565b600060208284031215611b1b57600080fd5b6000611b29848285016117ce565b91505092915050565b60008060408385031215611b4557600080fd5b6000611b53858286016117ce565b925050602083013567ffffffffffffffff811115611b7057600080fd5b611b7c858286016118cb565b9150509250929050565b600060208284031215611b9857600080fd5b600082013567ffffffffffffffff811115611bb257600080fd5b611bbe848285016117e3565b91505092915050565b600060208284031215611bd957600080fd5b600082013567ffffffffffffffff811115611bf357600080fd5b611bff84828501611857565b91505092915050565b600060208284031215611c1a57600080fd5b6000611c2884828501611963565b91505092915050565b600060208284031215611c4357600080fd5b6000611c5184828501611978565b91505092915050565b60008060408385031215611c6d57600080fd5b6000611c7b85828601611978565b925050602083013567ffffffffffffffff811115611c9857600080fd5b611ca4858286016118cb565b9150509250929050565b600060208284031215611cc057600080fd5b6000611cce848285016119a2565b91505092915050565b60008060408385031215611cea57600080fd5b6000611cf88582860161198d565b9250506020611d098582860161198d565b9150509250929050565b600060208284031215611d2557600080fd5b6000611d3384828501611af4565b91505092915050565b6000611d488383611fbf565b60608301905092915050565b611d5d81612374565b82525050565b611d6c816122ca565b82525050565b6000611d7d8261227a565b611d87818561229d565b9350611d928361226a565b8060005b83811015611dc3578151611daa8882611d3c565b9750611db583612290565b925050600181019050611d96565b5085935050505092915050565b611dd9816122dc565b82525050565b611df0611deb826122e8565b6123dd565b82525050565b611dff81612314565b82525050565b611e16611e1182612340565b6123e7565b82525050565b6000611e2782612285565b611e3181856122ae565b9350611e418185602086016123aa565b80840191505092915050565b6000611e5a6026836122b9565b91507f4f776e61626c653a206e6577206f776e657220697320746865207a65726f206160008301527f64647265737300000000000000000000000000000000000000000000000000006020830152604082019050919050565b6000611ec06020836122b9565b91507f4f776e61626c653a2063616c6c6572206973206e6f7420746865206f776e65726000830152602082019050919050565b6000611f00603e836122b9565b91507f6d73672e73656e646572206d75737420657175616c207468652065746865726560008301527f756d20616464726573732066726f6d20746865207075626c6963206b657900006020830152604082019050919050565b6000611f666029836122b9565b91507f4d6967726174696f6e20436f6e74726163742068617320696e7375666669636960008301527f656e742066756e647300000000000000000000000000000000000000000000006020830152604082019050919050565b606082016000820151611fd56000850182612001565b506020820151611fe86020850182612001565b506040820151611ffb6040850182611dd0565b50505050565b61200a8161236a565b82525050565b6120198161236a565b82525050565b600061202b8285611ddf565b60018201915061203b8284611e05565b6020820191508190509392505050565b60006120578284611e05565b60208201915081905092915050565b60006120728285611e05565b6020820191506120828284611e05565b6020820191508190509392505050565b600061209e8284611e1c565b915081905092915050565b60006020820190506120be6000830184611d63565b92915050565b60006040820190506120d96000830185611d54565b6120e66020830184612010565b9392505050565b600060208201905081810360008301526121078184611d72565b905092915050565b60006020820190506121246000830184611df6565b92915050565b6000602082019050818103600083015261214381611e4d565b9050919050565b6000602082019050818103600083015261216381611eb3565b9050919050565b6000602082019050818103600083015261218381611ef3565b9050919050565b600060208201905081810360008301526121a381611f59565b9050919050565b60006020820190506121bf6000830184612010565b92915050565b6000604051905081810181811067ffffffffffffffff821117156121e857600080fd5b8060405250919050565b600067ffffffffffffffff82111561220957600080fd5b602082029050602081019050919050565b600067ffffffffffffffff82111561223157600080fd5b602082029050602081019050919050565b600067ffffffffffffffff82111561225957600080fd5b602082029050602081019050919050565b6000819050602082019050919050565b600081519050919050565b600081519050919050565b6000602082019050919050565b600082825260208201905092915050565b600081905092915050565b600082825260208201905092915050565b60006122d58261234a565b9050919050565b60008115159050919050565b60007fff0000000000000000000000000000000000000000000000000000000000000082169050919050565b60007fffffffffffffffffffffffffffffffffffffffff00000000000000000000000082169050919050565b6000819050919050565b600073ffffffffffffffffffffffffffffffffffffffff82169050919050565b6000819050919050565b600061237f82612386565b9050919050565b600061239182612398565b9050919050565b60006123a38261234a565b9050919050565b60005b838110156123c85780820151818401526020810190506123ad565b838111156123d7576000848401525b50505050565b6000819050919050565b6000819050919050565b6123fa816122ca565b811461240557600080fd5b50565b612411816122dc565b811461241c57600080fd5b50565b61242881612314565b811461243357600080fd5b50565b61243f81612340565b811461244a57600080fd5b50565b6124568161236a565b811461246157600080fd5b5056fea26469706673582212202b9d87919c3e178fe8122ef6c8f7d677864cfa88120aceae371cf699c6e7069c64736f6c634300060c0033",
  "immutableReferences": {},
  "source": "// SPDX-License-Identifier: MIT\n// Redfox migration \n\npragma solidity ^0.6.6;\npragma experimental ABIEncoderV2;\n\nimport \"../node_modules/@openzeppelin/contracts/access/Ownable.sol\";\nimport \"../node_modules/@openzeppelin/contracts/token/ERC20/ERC20.sol\";\n\ncontract RedFoxMigration is Ownable{\n    \n    struct TimedBalance {\n        uint256 blockHeight;\n        uint256 amount;\n        bool paid;\n    }\n    \n    struct SetRBalance {\n        bytes20 account;\n        TimedBalance[] balances;\n    }\n    \n    struct SetEthBalance {\n        address account;\n        TimedBalance[] balances;\n    }\n    \n    address private _tokenContract;\n    \n    //for balances with an r address\n    mapping (bytes20 => TimedBalance[]) private _rbalances;\n    //for balances with an ethereum address\n    mapping (address => TimedBalance[]) private _ebalances;\n\n    event RedFoxMigrated(address account,uint256 amount);\n\n    function setTokenContract(address tokenContract) public onlyOwner{\n        _tokenContract = tokenContract;\n    } \n\n    function checkTokenBalance() public view returns(uint256){\n        ERC20 redFoxToken = ERC20(_tokenContract);\n        return redFoxToken.balanceOf(address(this));\n    }\n\n    function setRAccountBalances(SetRBalance[] memory balances) public onlyOwner{\n        for (uint i=0; i < balances.length; i++){\n            setRAccountBalance(balances[i].account,balances[i].balances);\n        }\n    }\n\n    function setRAccountBalance(bytes20 account, TimedBalance[] memory balances) public onlyOwner{\n        for(uint256 i = 0; i < balances.length; i++){\n            _rbalances[account].push(balances[i]);\n        }\n    }\n\n    function setEthAccountBalances(SetEthBalance[] memory balances) public onlyOwner{\n        for (uint i=0; i < balances.length; i++){\n            setEthAccountBalance(balances[i].account,balances[i].balances);\n        }\n    }\n\n    function setEthAccountBalance(address ethAddress, TimedBalance[] memory balances) public onlyOwner{\n        for(uint256 i = 0; i < balances.length; i++){\n            _ebalances[ethAddress].push(balances[i]);\n        }\n    }\n\n    function getEthAccountBalances(address ethAddress) public view returns (TimedBalance[] memory) {\n        return _ebalances[ethAddress];\n    }\n\n    function getRAccountBalances(bytes20 rAddress) public view returns (TimedBalance[] memory) {\n        return _rbalances[rAddress];\n    }\n    \n    function getEthAccountAvailable(address ethAddress) public view returns(uint256){\n        return availableAmount(_ebalances[ethAddress]);\n    }\n\n    function getRAccountAvailable(bytes20 account) public view returns (uint256) {\n        return availableAmount(_rbalances[account]);\n    }\n\n    function balanceOf(bytes32 publicKeyX,bytes32 publicKeyY) public view returns (uint256) {\n        uint256 totalBalance = 0;\n        bytes20 accountReference = getAccountReference(publicKeyX,publicKeyY);\n        address ethAddress = getEthereumAddress(publicKeyX,publicKeyY);\n        totalBalance += getRAccountAvailable(accountReference);\n        totalBalance += getEthAccountAvailable(ethAddress);\n        return totalBalance;\n    }\n\n    function withdrawBalance(bytes32 publicKeyX,bytes32 publicKeyY) public {\n        ERC20 redFoxToken = ERC20(_tokenContract);\n        address ethAddress = getEthereumAddress(publicKeyX,publicKeyY);\n        \n        //check that the public key matches the msg.sender\n        require(msg.sender == ethAddress,\n            \"msg.sender must equal the ethereum address from the public key\");\n        \n        //retrieve the balance from the public key\n        bytes20 accountRef = getAccountReference(publicKeyX,publicKeyY);\n        uint256 withdrawAmount = getEthAccountAvailable(ethAddress) + getRAccountAvailable(accountRef);\n        \n        //check that the balance allocated to this contract is enough to cover the withdrawal\n        require(redFoxToken.balanceOf(address(this))>=withdrawAmount,\n            \"Migration Contract has insufficient funds\");\n        \n        //send the balance to the msg.sender\n        redFoxToken.transfer(msg.sender,withdrawAmount);\n        \n        //mark the items as paid\n        updateBalances(ethAddress,accountRef);\n        emit RedFoxMigrated(msg.sender,withdrawAmount);\n    }\n\n    function getEthereumAddress(bytes32 publicKeyX,bytes32 publicKeyY) public pure returns(address addr){\n        bytes32 hash = keccak256(abi.encodePacked(publicKeyX,publicKeyY));\n        assembly {\n            mstore(0, hash)\n            addr := mload(0)\n        }    \n    }\n    \n    function getAccountReference(bytes32 publicKeyX,bytes32 publicKeyY) public pure returns(bytes20){\n        bytes memory compressedPublicKey = getCompressedPublicKey(publicKeyX,publicKeyY);\n        bytes32 firstSha256 = sha256(compressedPublicKey);\n        bytes20 ripemd = ripemd160(abi.encodePacked(firstSha256));\n        return ripemd;        \n    }\n    \n    function getCompressedPublicKey(bytes32 publicKeyX,bytes32 publicKeyY) private pure returns(bytes memory){\n        uint256 yAsInt = uint256(publicKeyY);\n        uint8 yOdd = uint8(yAsInt&1);\n        byte leadingByte;\n        if(yOdd == 1) \n            leadingByte = 0x03; \n        else \n            leadingByte = 0x02;\n        bytes memory cPublicKey = abi.encodePacked(leadingByte,publicKeyX);\n        return cPublicKey;\n    }\n    \n    function availableAmount(TimedBalance[] memory balances) private view returns (uint256) {\n        uint256 totalBalance = 0;\n        uint256 currentBlockHeight = block.number;\n        for(uint256 i = 0; i < balances.length; i++){\n            if(currentBlockHeight >= balances[i].blockHeight && balances[i].paid == false){\n                totalBalance += balances[i].amount;\n            }\n        }\n        return totalBalance;\n    }\n    \n    function updateBalances(address ethAddress,bytes20 accountRef) private {\n        uint currentBlockHeight = block.number;\n        for(uint256 i = 0; i < _ebalances[ethAddress].length; i++){\n            if(currentBlockHeight >= _ebalances[ethAddress][i].blockHeight && !_ebalances[ethAddress][i].paid){\n                _ebalances[ethAddress][i].paid = true;\n            }\n        }\n        for(uint256 i = 0; i < _rbalances[accountRef].length; i++){\n            if(currentBlockHeight >= _rbalances[accountRef][i].blockHeight && !_rbalances[accountRef][i].paid){\n                _rbalances[accountRef][i].paid = true;\n            }\n        }\n    }\n\n\n}\n\n",
  "sourcePath": "/Volumes/UsersSSD/james/Development/redfox/contracts/RedFoxMigration.sol",
  "compiler": {
    "name": "solc",
    "version": "0.6.12+commit.27d51765.Emscripten.clang"
  },
  "schemaVersion": "3.3.0",
  "updatedAt": "2020-10-14T14:35:58.119Z",
  "devdoc": {
    "kind": "dev",
    "methods": {
      "owner()": {
        "details": "Returns the address of the current owner."
      },
      "renounceOwnership()": {
        "details": "Leaves the contract without owner. It will not be possible to call `onlyOwner` functions anymore. Can only be called by the current owner. NOTE: Renouncing ownership will leave the contract without an owner, thereby removing any functionality that is only available to the owner."
      },
      "transferOwnership(address)": {
        "details": "Transfers ownership of the contract to a new account (`newOwner`). Can only be called by the current owner."
      }
    },
    "version": 1
  },
  "userdoc": {
    "kind": "user",
    "methods": {},
    "version": 1
  }
}