{
  "contractName": "RedFoxMigration",
  "abi": [
    {
      "inputs": [],
      "stateMutability": "nonpayable",
      "type": "constructor"
    },
    {
      "anonymous": false,
      "inputs": [
        {
          "indexed": true,
          "internalType": "address",
          "name": "previousOwner",
          "type": "address"
        },
        {
          "indexed": true,
          "internalType": "address",
          "name": "newOwner",
          "type": "address"
        }
      ],
      "name": "OwnershipTransferred",
      "type": "event"
    },
    {
      "anonymous": false,
      "inputs": [
        {
          "indexed": false,
          "internalType": "address",
          "name": "account",
          "type": "address"
        },
        {
          "indexed": false,
          "internalType": "uint256",
          "name": "amount",
          "type": "uint256"
        }
      ],
      "name": "RedFoxMigrated",
      "type": "event"
    },
    {
      "inputs": [],
      "name": "owner",
      "outputs": [
        {
          "internalType": "address",
          "name": "",
          "type": "address"
        }
      ],
      "stateMutability": "view",
      "type": "function",
      "constant": true
    },
    {
      "inputs": [],
      "name": "renounceOwnership",
      "outputs": [],
      "stateMutability": "nonpayable",
      "type": "function"
    },
    {
      "inputs": [
        {
          "internalType": "address",
          "name": "newOwner",
          "type": "address"
        }
      ],
      "name": "transferOwnership",
      "outputs": [],
      "stateMutability": "nonpayable",
      "type": "function"
    },
    {
      "inputs": [
        {
          "internalType": "address",
          "name": "tokenContract",
          "type": "address"
        }
      ],
      "name": "setTokenContract",
      "outputs": [],
      "stateMutability": "nonpayable",
      "type": "function"
    },
    {
      "inputs": [],
      "name": "finalizeImport",
      "outputs": [],
      "stateMutability": "nonpayable",
      "type": "function"
    },
    {
      "inputs": [],
      "name": "getTokenContract",
      "outputs": [
        {
          "internalType": "address",
          "name": "",
          "type": "address"
        }
      ],
      "stateMutability": "view",
      "type": "function",
      "constant": true
    },
    {
      "inputs": [],
      "name": "checkTokenBalance",
      "outputs": [
        {
          "internalType": "uint256",
          "name": "",
          "type": "uint256"
        }
      ],
      "stateMutability": "view",
      "type": "function",
      "constant": true
    },
    {
      "inputs": [
        {
          "internalType": "bytes20",
          "name": "account",
          "type": "bytes20"
        },
        {
          "components": [
            {
              "internalType": "uint256",
              "name": "blockHeight",
              "type": "uint256"
            },
            {
              "internalType": "uint256",
              "name": "amount",
              "type": "uint256"
            },
            {
              "internalType": "bool",
              "name": "paid",
              "type": "bool"
            }
          ],
          "internalType": "struct RedFoxMigration.TimedBalance[]",
          "name": "balances",
          "type": "tuple[]"
        }
      ],
      "name": "setRAccountBalance",
      "outputs": [],
      "stateMutability": "nonpayable",
      "type": "function"
    },
    {
      "inputs": [
        {
          "components": [
            {
              "internalType": "bytes20",
              "name": "account",
              "type": "bytes20"
            },
            {
              "components": [
                {
                  "internalType": "uint256",
                  "name": "blockHeight",
                  "type": "uint256"
                },
                {
                  "internalType": "uint256",
                  "name": "amount",
                  "type": "uint256"
                },
                {
                  "internalType": "bool",
                  "name": "paid",
                  "type": "bool"
                }
              ],
              "internalType": "struct RedFoxMigration.TimedBalance[]",
              "name": "balances",
              "type": "tuple[]"
            }
          ],
          "internalType": "struct RedFoxMigration.SetRBalance[]",
          "name": "balances",
          "type": "tuple[]"
        }
      ],
      "name": "setRAccountBalances",
      "outputs": [],
      "stateMutability": "nonpayable",
      "type": "function"
    },
    {
      "inputs": [
        {
          "internalType": "address",
          "name": "ethAddress",
          "type": "address"
        },
        {
          "components": [
            {
              "internalType": "uint256",
              "name": "blockHeight",
              "type": "uint256"
            },
            {
              "internalType": "uint256",
              "name": "amount",
              "type": "uint256"
            },
            {
              "internalType": "bool",
              "name": "paid",
              "type": "bool"
            }
          ],
          "internalType": "struct RedFoxMigration.TimedBalance[]",
          "name": "balances",
          "type": "tuple[]"
        }
      ],
      "name": "setEthAccountBalance",
      "outputs": [],
      "stateMutability": "nonpayable",
      "type": "function"
    },
    {
      "inputs": [
        {
          "components": [
            {
              "internalType": "address",
              "name": "account",
              "type": "address"
            },
            {
              "components": [
                {
                  "internalType": "uint256",
                  "name": "blockHeight",
                  "type": "uint256"
                },
                {
                  "internalType": "uint256",
                  "name": "amount",
                  "type": "uint256"
                },
                {
                  "internalType": "bool",
                  "name": "paid",
                  "type": "bool"
                }
              ],
              "internalType": "struct RedFoxMigration.TimedBalance[]",
              "name": "balances",
              "type": "tuple[]"
            }
          ],
          "internalType": "struct RedFoxMigration.SetEthBalance[]",
          "name": "balances",
          "type": "tuple[]"
        }
      ],
      "name": "setEthAccountBalances",
      "outputs": [],
      "stateMutability": "nonpayable",
      "type": "function"
    },
    {
      "inputs": [
        {
          "internalType": "address",
          "name": "ethAddress",
          "type": "address"
        }
      ],
      "name": "getEthAccountBalances",
      "outputs": [
        {
          "components": [
            {
              "internalType": "uint256",
              "name": "blockHeight",
              "type": "uint256"
            },
            {
              "internalType": "uint256",
              "name": "amount",
              "type": "uint256"
            },
            {
              "internalType": "bool",
              "name": "paid",
              "type": "bool"
            }
          ],
          "internalType": "struct RedFoxMigration.TimedBalance[]",
          "name": "",
          "type": "tuple[]"
        }
      ],
      "stateMutability": "view",
      "type": "function",
      "constant": true
    },
    {
      "inputs": [
        {
          "internalType": "bytes20",
          "name": "rAddress",
          "type": "bytes20"
        }
      ],
      "name": "getRAccountBalances",
      "outputs": [
        {
          "components": [
            {
              "internalType": "uint256",
              "name": "blockHeight",
              "type": "uint256"
            },
            {
              "internalType": "uint256",
              "name": "amount",
              "type": "uint256"
            },
            {
              "internalType": "bool",
              "name": "paid",
              "type": "bool"
            }
          ],
          "internalType": "struct RedFoxMigration.TimedBalance[]",
          "name": "",
          "type": "tuple[]"
        }
      ],
      "stateMutability": "view",
      "type": "function",
      "constant": true
    },
    {
      "inputs": [
        {
          "internalType": "address",
          "name": "ethAddress",
          "type": "address"
        }
      ],
      "name": "getEthAccountAvailable",
      "outputs": [
        {
          "internalType": "uint256",
          "name": "",
          "type": "uint256"
        }
      ],
      "stateMutability": "view",
      "type": "function",
      "constant": true
    },
    {
      "inputs": [
        {
          "internalType": "bytes20",
          "name": "account",
          "type": "bytes20"
        }
      ],
      "name": "getRAccountAvailable",
      "outputs": [
        {
          "internalType": "uint256",
          "name": "",
          "type": "uint256"
        }
      ],
      "stateMutability": "view",
      "type": "function",
      "constant": true
    },
    {
      "inputs": [
        {
          "internalType": "address",
          "name": "ethAddress",
          "type": "address"
        }
      ],
      "name": "getEthAccountStatus",
      "outputs": [
        {
          "components": [
            {
              "internalType": "uint256",
              "name": "pending",
              "type": "uint256"
            },
            {
              "internalType": "uint256",
              "name": "available",
              "type": "uint256"
            },
            {
              "internalType": "uint256",
              "name": "released",
              "type": "uint256"
            }
          ],
          "internalType": "struct RedFoxMigration.AccountStatus",
          "name": "",
          "type": "tuple"
        }
      ],
      "stateMutability": "view",
      "type": "function",
      "constant": true
    },
    {
      "inputs": [
        {
          "internalType": "bytes20",
          "name": "account",
          "type": "bytes20"
        }
      ],
      "name": "getRAccountStatus",
      "outputs": [
        {
          "components": [
            {
              "internalType": "uint256",
              "name": "pending",
              "type": "uint256"
            },
            {
              "internalType": "uint256",
              "name": "available",
              "type": "uint256"
            },
            {
              "internalType": "uint256",
              "name": "released",
              "type": "uint256"
            }
          ],
          "internalType": "struct RedFoxMigration.AccountStatus",
          "name": "",
          "type": "tuple"
        }
      ],
      "stateMutability": "view",
      "type": "function",
      "constant": true
    },
    {
      "inputs": [
        {
          "internalType": "bytes32",
          "name": "publicKeyX",
          "type": "bytes32"
        },
        {
          "internalType": "bytes32",
          "name": "publicKeyY",
          "type": "bytes32"
        }
      ],
      "name": "totalAccountBalance",
      "outputs": [
        {
          "components": [
            {
              "internalType": "uint256",
              "name": "pending",
              "type": "uint256"
            },
            {
              "internalType": "uint256",
              "name": "available",
              "type": "uint256"
            },
            {
              "internalType": "uint256",
              "name": "released",
              "type": "uint256"
            }
          ],
          "internalType": "struct RedFoxMigration.AccountStatus",
          "name": "",
          "type": "tuple"
        }
      ],
      "stateMutability": "view",
      "type": "function",
      "constant": true
    },
    {
      "inputs": [
        {
          "internalType": "bytes32",
          "name": "publicKeyX",
          "type": "bytes32"
        },
        {
          "internalType": "bytes32",
          "name": "publicKeyY",
          "type": "bytes32"
        }
      ],
      "name": "withdrawBalance",
      "outputs": [],
      "stateMutability": "nonpayable",
      "type": "function"
    },
    {
      "inputs": [
        {
          "internalType": "bytes32",
          "name": "publicKeyX",
          "type": "bytes32"
        },
        {
          "internalType": "bytes32",
          "name": "publicKeyY",
          "type": "bytes32"
        }
      ],
      "name": "getCompressedPublicKey",
      "outputs": [
        {
          "internalType": "bytes",
          "name": "",
          "type": "bytes"
        }
      ],
      "stateMutability": "pure",
      "type": "function",
      "constant": true
    }
  ],
  "bytecode": "0x608060405234801561001057600080fd5b5060006100216100df60201b60201c565b9050806000806101000a81548173ffffffffffffffffffffffffffffffffffffffff021916908373ffffffffffffffffffffffffffffffffffffffff1602179055508073ffffffffffffffffffffffffffffffffffffffff16600073ffffffffffffffffffffffffffffffffffffffff167f8be0079c531659141344cd1fd0a4f28419497f9722a3daafe3b4186f6b6457e060405160405180910390a3506000600160146101000a81548160ff0219169083151502179055506100e7565b600033905090565b612cda80620000f76000396000f3fe608060405234801561001057600080fd5b506004361061012c5760003560e01c806384b3f29b116100ad578063c56c5cfe11610071578063c56c5cfe1461032f578063d1ba51961461034b578063e80f95d11461037b578063f2fde38b14610397578063f9c4b041146103b35761012c565b806384b3f29b146102795780638da5cb5b146102a95780638e9e0553146102c75780639d77097a146102f7578063bbcd5bbe146103135761012c565b80635e6639ea116100f45780635e6639ea146101d75780636623a0bd146101f35780636dfa91c414610223578063715018a61461023f578063837a7a0b146102495761012c565b80630ea695a81461013157806328b7bede146101615780632ce6d0b71461017f5780634c943fe1146101895780634f731087146101b9575b600080fd5b61014b600480360381019061014691906122b5565b6103e3565b60405161015891906129c8565b60405180910390f35b6101696104ba565b6040516101769190612865565b60405180910390f35b6101876104e4565b005b6101a3600480360381019061019e91906122b5565b6105eb565b6040516101b091906129ad565b60405180910390f35b6101c16106b8565b6040516101ce91906129c8565b60405180910390f35b6101f160048036038101906101ec919061224b565b61076f565b005b61020d600480360381019061020891906122b5565b6108af565b60405161021a91906128a9565b60405180910390f35b61023d6004803603810190610238919061220a565b61096e565b005b610247610aae565b005b610263600480360381019061025e919061235b565b610c01565b60405161027091906129ad565b60405180910390f35b610293600480360381019061028e919061218d565b610c9d565b6040516102a091906129c8565b60405180910390f35b6102b1610d82565b6040516102be9190612865565b60405180910390f35b6102e160048036038101906102dc919061235b565b610dab565b6040516102ee91906128cb565b60405180910390f35b610311600480360381019061030c91906121b6565b610e12565b005b61032d6004803603810190610328919061218d565b610fcd565b005b6103496004803603810190610344919061235b565b6110fc565b005b6103656004803603810190610360919061218d565b611368565b60405161037291906129ad565b60405180910390f35b610395600480360381019061039091906122de565b611443565b005b6103b160048036038101906103ac919061218d565b6115f0565b005b6103cd60048036038101906103c8919061218d565b6117b2565b6040516103da91906128a9565b60405180910390f35b60006103ed611e31565b6104ab60026000856bffffffffffffffffffffffff19166bffffffffffffffffffffffff19168152602001908152602001600020805480602002602001604051908101604052809291908181526020016000905b828210156104a2578382906000526020600020906003020160405180606001604052908160008201548152602001600182015481526020016002820160009054906101000a900460ff16151515158152505081526020019060010190610441565b5050505061187f565b90508060200151915050919050565b6000600160009054906101000a900473ffffffffffffffffffffffffffffffffffffffff16905090565b6104ec611a03565b73ffffffffffffffffffffffffffffffffffffffff1660008054906101000a900473ffffffffffffffffffffffffffffffffffffffff1673ffffffffffffffffffffffffffffffffffffffff1614610579576040517f08c379a00000000000000000000000000000000000000000000000000000000081526004016105709061290d565b60405180910390fd5b60001515600160149054906101000a900460ff161515146105cf576040517f08c379a00000000000000000000000000000000000000000000000000000000081526004016105c69061292d565b60405180910390fd5b60018060146101000a81548160ff021916908315150217905550565b6105f3611e31565b6106b160026000846bffffffffffffffffffffffff19166bffffffffffffffffffffffff19168152602001908152602001600020805480602002602001604051908101604052809291908181526020016000905b828210156106a8578382906000526020600020906003020160405180606001604052908160008201548152602001600182015481526020016002820160009054906101000a900460ff16151515158152505081526020019060010190610647565b5050505061187f565b9050919050565b600080600160009054906101000a900473ffffffffffffffffffffffffffffffffffffffff1690508073ffffffffffffffffffffffffffffffffffffffff166370a08231306040518263ffffffff1660e01b81526004016107199190612865565b60206040518083038186803b15801561073157600080fd5b505afa158015610745573d6000803e3d6000fd5b505050506040513d601f19601f820116820180604052508101906107699190612397565b91505090565b610777611a03565b73ffffffffffffffffffffffffffffffffffffffff1660008054906101000a900473ffffffffffffffffffffffffffffffffffffffff1673ffffffffffffffffffffffffffffffffffffffff1614610804576040517f08c379a00000000000000000000000000000000000000000000000000000000081526004016107fb9061290d565b60405180910390fd5b60001515600160149054906101000a900460ff1615151461085a576040517f08c379a00000000000000000000000000000000000000000000000000000000081526004016108519061292d565b60405180910390fd5b60005b81518110156108ab5761089e82828151811061087557fe5b60200260200101516000015183838151811061088d57fe5b602002602001015160200151611443565b808060010191505061085d565b5050565b606060026000836bffffffffffffffffffffffff19166bffffffffffffffffffffffff19168152602001908152602001600020805480602002602001604051908101604052809291908181526020016000905b82821015610963578382906000526020600020906003020160405180606001604052908160008201548152602001600182015481526020016002820160009054906101000a900460ff16151515158152505081526020019060010190610902565b505050509050919050565b610976611a03565b73ffffffffffffffffffffffffffffffffffffffff1660008054906101000a900473ffffffffffffffffffffffffffffffffffffffff1673ffffffffffffffffffffffffffffffffffffffff1614610a03576040517f08c379a00000000000000000000000000000000000000000000000000000000081526004016109fa9061290d565b60405180910390fd5b60001515600160149054906101000a900460ff16151514610a59576040517f08c379a0000000000000000000000000000000000000000000000000000000008152600401610a509061292d565b60405180910390fd5b60005b8151811015610aaa57610a9d828281518110610a7457fe5b602002602001015160000151838381518110610a8c57fe5b602002602001015160200151610e12565b8080600101915050610a5c565b5050565b610ab6611a03565b73ffffffffffffffffffffffffffffffffffffffff1660008054906101000a900473ffffffffffffffffffffffffffffffffffffffff1673ffffffffffffffffffffffffffffffffffffffff1614610b43576040517f08c379a0000000000000000000000000000000000000000000000000000000008152600401610b3a9061290d565b60405180910390fd5b600073ffffffffffffffffffffffffffffffffffffffff1660008054906101000a900473ffffffffffffffffffffffffffffffffffffffff1673ffffffffffffffffffffffffffffffffffffffff167f8be0079c531659141344cd1fd0a4f28419497f9722a3daafe3b4186f6b6457e060405160405180910390a360008060006101000a81548173ffffffffffffffffffffffffffffffffffffffff021916908373ffffffffffffffffffffffffffffffffffffffff160217905550565b610c09611e31565b610c11611e31565b6000610c1d8585611a0b565b90506000610c2b8686611ad5565b9050610c35611e31565b610c3e836105eb565b9050610c48611e31565b610c5183611368565b9050806000015182600001510185600001818152505080602001518260200151018560200181815250508060400151826040015101856040018181525050849550505050505092915050565b6000610ca7611e31565b610d73600360008573ffffffffffffffffffffffffffffffffffffffff1673ffffffffffffffffffffffffffffffffffffffff168152602001908152602001600020805480602002602001604051908101604052809291908181526020016000905b82821015610d6a578382906000526020600020906003020160405180606001604052908160008201548152602001600182015481526020016002820160009054906101000a900460ff16151515158152505081526020019060010190610d09565b5050505061187f565b90508060200151915050919050565b60008060009054906101000a900473ffffffffffffffffffffffffffffffffffffffff16905090565b606060008260001c90506000600182169050600060018260ff161415610dd757600360f81b9050610ddf565b600260f81b90505b60608187604051602001610df49291906127db565b60405160208183030381529060405290508094505050505092915050565b610e1a611a03565b73ffffffffffffffffffffffffffffffffffffffff1660008054906101000a900473ffffffffffffffffffffffffffffffffffffffff1673ffffffffffffffffffffffffffffffffffffffff1614610ea7576040517f08c379a0000000000000000000000000000000000000000000000000000000008152600401610e9e9061290d565b60405180910390fd5b60001515600160149054906101000a900460ff16151514610efd576040517f08c379a0000000000000000000000000000000000000000000000000000000008152600401610ef49061292d565b60405180910390fd5b60005b8151811015610fc857600360008473ffffffffffffffffffffffffffffffffffffffff1673ffffffffffffffffffffffffffffffffffffffff168152602001908152602001600020828281518110610f5457fe5b60200260200101519080600181540180825580915050600190039060005260206000209060030201600090919091909150600082015181600001556020820151816001015560408201518160020160006101000a81548160ff02191690831515021790555050508080600101915050610f00565b505050565b610fd5611a03565b73ffffffffffffffffffffffffffffffffffffffff1660008054906101000a900473ffffffffffffffffffffffffffffffffffffffff1673ffffffffffffffffffffffffffffffffffffffff1614611062576040517f08c379a00000000000000000000000000000000000000000000000000000000081526004016110599061290d565b60405180910390fd5b60001515600160149054906101000a900460ff161515146110b8576040517f08c379a00000000000000000000000000000000000000000000000000000000081526004016110af9061296d565b60405180910390fd5b80600160006101000a81548173ffffffffffffffffffffffffffffffffffffffff021916908373ffffffffffffffffffffffffffffffffffffffff16021790555050565b6000600160009054906101000a900473ffffffffffffffffffffffffffffffffffffffff169050600061112f8484611ad5565b90508073ffffffffffffffffffffffffffffffffffffffff163373ffffffffffffffffffffffffffffffffffffffff161461119f576040517f08c379a00000000000000000000000000000000000000000000000000000000081526004016111969061294d565b60405180910390fd5b60006111ab8585611a0b565b905060006111b8826103e3565b6111c184610c9d565b019050808473ffffffffffffffffffffffffffffffffffffffff166370a08231306040518263ffffffff1660e01b81526004016111fe9190612865565b60206040518083038186803b15801561121657600080fd5b505afa15801561122a573d6000803e3d6000fd5b505050506040513d601f19601f8201168201806040525081019061124e9190612397565b101561128f576040517f08c379a00000000000000000000000000000000000000000000000000000000081526004016112869061298d565b60405180910390fd5b8373ffffffffffffffffffffffffffffffffffffffff1663a9059cbb33836040518363ffffffff1660e01b81526004016112ca929190612880565b602060405180830381600087803b1580156112e457600080fd5b505af11580156112f8573d6000803e3d6000fd5b505050506040513d601f19601f8201168201806040525081019061131c919061228c565b506113278383611b13565b7f1d9800858c73141c1dd34039c3ecdb5cd06a8d28d83c9279342e5cc7304d5db53382604051611358929190612880565b60405180910390a1505050505050565b611370611e31565b61143c600360008473ffffffffffffffffffffffffffffffffffffffff1673ffffffffffffffffffffffffffffffffffffffff168152602001908152602001600020805480602002602001604051908101604052809291908181526020016000905b82821015611433578382906000526020600020906003020160405180606001604052908160008201548152602001600182015481526020016002820160009054906101000a900460ff161515151581525050815260200190600101906113d2565b5050505061187f565b9050919050565b61144b611a03565b73ffffffffffffffffffffffffffffffffffffffff1660008054906101000a900473ffffffffffffffffffffffffffffffffffffffff1673ffffffffffffffffffffffffffffffffffffffff16146114d8576040517f08c379a00000000000000000000000000000000000000000000000000000000081526004016114cf9061290d565b60405180910390fd5b60001515600160149054906101000a900460ff1615151461152e576040517f08c379a00000000000000000000000000000000000000000000000000000000081526004016115259061292d565b60405180910390fd5b60005b81518110156115eb5760026000846bffffffffffffffffffffffff19166bffffffffffffffffffffffff1916815260200190815260200160002082828151811061157757fe5b60200260200101519080600181540180825580915050600190039060005260206000209060030201600090919091909150600082015181600001556020820151816001015560408201518160020160006101000a81548160ff02191690831515021790555050508080600101915050611531565b505050565b6115f8611a03565b73ffffffffffffffffffffffffffffffffffffffff1660008054906101000a900473ffffffffffffffffffffffffffffffffffffffff1673ffffffffffffffffffffffffffffffffffffffff1614611685576040517f08c379a000000000000000000000000000000000000000000000000000000000815260040161167c9061290d565b60405180910390fd5b600073ffffffffffffffffffffffffffffffffffffffff168173ffffffffffffffffffffffffffffffffffffffff1614156116f5576040517f08c379a00000000000000000000000000000000000000000000000000000000081526004016116ec906128ed565b60405180910390fd5b8073ffffffffffffffffffffffffffffffffffffffff1660008054906101000a900473ffffffffffffffffffffffffffffffffffffffff1673ffffffffffffffffffffffffffffffffffffffff167f8be0079c531659141344cd1fd0a4f28419497f9722a3daafe3b4186f6b6457e060405160405180910390a3806000806101000a81548173ffffffffffffffffffffffffffffffffffffffff021916908373ffffffffffffffffffffffffffffffffffffffff16021790555050565b6060600360008373ffffffffffffffffffffffffffffffffffffffff1673ffffffffffffffffffffffffffffffffffffffff168152602001908152602001600020805480602002602001604051908101604052809291908181526020016000905b82821015611874578382906000526020600020906003020160405180606001604052908160008201548152602001600182015481526020016002820160009054906101000a900460ff16151515158152505081526020019060010190611813565b505050509050919050565b611887611e31565b6000439050611894611e31565b60008160000181815250506000816020018181525050600081604001818152505060005b84518110156119f8578481815181106118cd57fe5b60200260200101516000015183101580156119035750600015158582815181106118f357fe5b6020026020010151604001511515145b156119305784818151811061191457fe5b6020026020010151602001518260200181815101915081815250505b8285828151811061193d57fe5b6020026020010151600001511015801561197257506000151585828151811061196257fe5b6020026020010151604001511515145b1561199f5784818151811061198357fe5b6020026020010151602001518260000181815101915081815250505b600115158582815181106119af57fe5b602002602001015160400151151514156119eb578481815181106119cf57fe5b6020026020010151602001518260400181815101915081815250505b80806001019150506118b8565b508092505050919050565b600033905090565b60006060611a198484610dab565b90506000600282604051611a2d919061284e565b602060405180830381855afa158015611a4a573d6000803e3d6000fd5b5050506040513d601f19601f82011682018060405250810190611a6d9190612332565b90506000600382604051602001611a849190612807565b604051602081830303815290604052604051611aa0919061284e565b602060405180830381855afa158015611abd573d6000803e3d6000fd5b5050506040515160601b905080935050505092915050565b6000808383604051602001611aeb929190612822565b6040516020818303038152906040528051906020012090508060005260005191505092915050565b600043905060005b600360008573ffffffffffffffffffffffffffffffffffffffff1673ffffffffffffffffffffffffffffffffffffffff16815260200190815260200160002080549050811015611cbd57600360008573ffffffffffffffffffffffffffffffffffffffff1673ffffffffffffffffffffffffffffffffffffffff1681526020019081526020016000208181548110611baf57fe5b9060005260206000209060030201600001548210158015611c365750600360008573ffffffffffffffffffffffffffffffffffffffff1673ffffffffffffffffffffffffffffffffffffffff1681526020019081526020016000208181548110611c1557fe5b906000526020600020906003020160020160009054906101000a900460ff16155b15611cb0576001600360008673ffffffffffffffffffffffffffffffffffffffff1673ffffffffffffffffffffffffffffffffffffffff1681526020019081526020016000208281548110611c8757fe5b906000526020600020906003020160020160006101000a81548160ff0219169083151502179055505b8080600101915050611b1b565b5060005b60026000846bffffffffffffffffffffffff19166bffffffffffffffffffffffff1916815260200190815260200160002080549050811015611e2b5760026000846bffffffffffffffffffffffff19166bffffffffffffffffffffffff191681526020019081526020016000208181548110611d3957fe5b9060005260206000209060030201600001548210158015611db2575060026000846bffffffffffffffffffffffff19166bffffffffffffffffffffffff191681526020019081526020016000208181548110611d9157fe5b906000526020600020906003020160020160009054906101000a900460ff16155b15611e1e57600160026000856bffffffffffffffffffffffff19166bffffffffffffffffffffffff191681526020019081526020016000208281548110611df557fe5b906000526020600020906003020160020160006101000a81548160ff0219169083151502179055505b8080600101915050611cc1565b50505050565b60405180606001604052806000815260200160008152602001600081525090565b600081359050611e6181612c31565b92915050565b600082601f830112611e7857600080fd5b8135611e8b611e8682612a10565b6129e3565b9150818183526020840193506020810190508360005b83811015611ed15781358601611eb7888261203b565b845260208401935060208301925050600181019050611ea1565b5050505092915050565b600082601f830112611eec57600080fd5b8135611eff611efa82612a38565b6129e3565b9150818183526020840193506020810190508360005b83811015611f455781358601611f2b888261209f565b845260208401935060208301925050600181019050611f15565b5050505092915050565b600082601f830112611f6057600080fd5b8135611f73611f6e82612a60565b6129e3565b91508181835260208401935060208101905083856060840282011115611f9857600080fd5b60005b83811015611fc85781611fae8882612103565b845260208401935060608301925050600181019050611f9b565b5050505092915050565b600081359050611fe181612c48565b92915050565b600081519050611ff681612c48565b92915050565b60008135905061200b81612c5f565b92915050565b60008135905061202081612c76565b92915050565b60008151905061203581612c76565b92915050565b60006040828403121561204d57600080fd5b61205760406129e3565b9050600061206784828501611e52565b600083015250602082013567ffffffffffffffff81111561208757600080fd5b61209384828501611f4f565b60208301525092915050565b6000604082840312156120b157600080fd5b6120bb60406129e3565b905060006120cb84828501611ffc565b600083015250602082013567ffffffffffffffff8111156120eb57600080fd5b6120f784828501611f4f565b60208301525092915050565b60006060828403121561211557600080fd5b61211f60606129e3565b9050600061212f84828501612163565b600083015250602061214384828501612163565b602083015250604061215784828501611fd2565b60408301525092915050565b60008135905061217281612c8d565b92915050565b60008151905061218781612c8d565b92915050565b60006020828403121561219f57600080fd5b60006121ad84828501611e52565b91505092915050565b600080604083850312156121c957600080fd5b60006121d785828601611e52565b925050602083013567ffffffffffffffff8111156121f457600080fd5b61220085828601611f4f565b9150509250929050565b60006020828403121561221c57600080fd5b600082013567ffffffffffffffff81111561223657600080fd5b61224284828501611e67565b91505092915050565b60006020828403121561225d57600080fd5b600082013567ffffffffffffffff81111561227757600080fd5b61228384828501611edb565b91505092915050565b60006020828403121561229e57600080fd5b60006122ac84828501611fe7565b91505092915050565b6000602082840312156122c757600080fd5b60006122d584828501611ffc565b91505092915050565b600080604083850312156122f157600080fd5b60006122ff85828601611ffc565b925050602083013567ffffffffffffffff81111561231c57600080fd5b61232885828601611f4f565b9150509250929050565b60006020828403121561234457600080fd5b600061235284828501612026565b91505092915050565b6000806040838503121561236e57600080fd5b600061237c85828601612011565b925050602061238d85828601612011565b9150509250929050565b6000602082840312156123a957600080fd5b60006123b784828501612178565b91505092915050565b60006123cc838361277b565b60608301905092915050565b6123e181612ba3565b82525050565b6123f081612af9565b82525050565b600061240182612a98565b61240b8185612abb565b935061241683612a88565b8060005b8381101561244757815161242e88826123c0565b975061243983612aae565b92505060018101905061241a565b5085935050505092915050565b61245d81612b0b565b82525050565b61247461246f82612b17565b612c0c565b82525050565b61248b61248682612b6f565b612c16565b82525050565b600061249c82612aa3565b6124a68185612acc565b93506124b6818560208601612bd9565b6124bf81612c20565b840191505092915050565b60006124d582612aa3565b6124df8185612add565b93506124ef818560208601612bd9565b80840191505092915050565b6000612508602683612ae8565b91507f4f776e61626c653a206e6577206f776e657220697320746865207a65726f206160008301527f64647265737300000000000000000000000000000000000000000000000000006020830152604082019050919050565b600061256e602083612ae8565b91507f4f776e61626c653a2063616c6c6572206973206e6f7420746865206f776e65726000830152602082019050919050565b60006125ae603683612ae8565b91507f416374696f6e2063616e6e6f742062652074616b656e20616674657220696d7060008301527f6f727420686173206265656e2066696e616c697a6564000000000000000000006020830152604082019050919050565b6000612614603e83612ae8565b91507f6d73672e73656e646572206d75737420657175616c207468652065746865726560008301527f756d20616464726573732066726f6d20746865207075626c6963206b657900006020830152604082019050919050565b600061267a603f83612ae8565b91507f746f6b656e436f6e74726163742063616e6e6f74206265206368616e6765642060008301527f616674657220696d706f727420686173206265656e2066696e616c697a6564006020830152604082019050919050565b60006126e0602983612ae8565b91507f4d6967726174696f6e20436f6e74726163742068617320696e7375666669636960008301527f656e742066756e647300000000000000000000000000000000000000000000006020830152604082019050919050565b60608201600082015161274f60008501826127bd565b50602082015161276260208501826127bd565b50604082015161277560408501826127bd565b50505050565b60608201600082015161279160008501826127bd565b5060208201516127a460208501826127bd565b5060408201516127b76040850182612454565b50505050565b6127c681612b99565b82525050565b6127d581612b99565b82525050565b60006127e78285612463565b6001820191506127f7828461247a565b6020820191508190509392505050565b6000612813828461247a565b60208201915081905092915050565b600061282e828561247a565b60208201915061283e828461247a565b6020820191508190509392505050565b600061285a82846124ca565b915081905092915050565b600060208201905061287a60008301846123e7565b92915050565b600060408201905061289560008301856123d8565b6128a260208301846127cc565b9392505050565b600060208201905081810360008301526128c381846123f6565b905092915050565b600060208201905081810360008301526128e58184612491565b905092915050565b60006020820190508181036000830152612906816124fb565b9050919050565b6000602082019050818103600083015261292681612561565b9050919050565b60006020820190508181036000830152612946816125a1565b9050919050565b6000602082019050818103600083015261296681612607565b9050919050565b600060208201905081810360008301526129868161266d565b9050919050565b600060208201905081810360008301526129a6816126d3565b9050919050565b60006060820190506129c26000830184612739565b92915050565b60006020820190506129dd60008301846127cc565b92915050565b6000604051905081810181811067ffffffffffffffff82111715612a0657600080fd5b8060405250919050565b600067ffffffffffffffff821115612a2757600080fd5b602082029050602081019050919050565b600067ffffffffffffffff821115612a4f57600080fd5b602082029050602081019050919050565b600067ffffffffffffffff821115612a7757600080fd5b602082029050602081019050919050565b6000819050602082019050919050565b600081519050919050565b600081519050919050565b6000602082019050919050565b600082825260208201905092915050565b600082825260208201905092915050565b600081905092915050565b600082825260208201905092915050565b6000612b0482612b79565b9050919050565b60008115159050919050565b60007fff0000000000000000000000000000000000000000000000000000000000000082169050919050565b60007fffffffffffffffffffffffffffffffffffffffff00000000000000000000000082169050919050565b6000819050919050565b600073ffffffffffffffffffffffffffffffffffffffff82169050919050565b6000819050919050565b6000612bae82612bb5565b9050919050565b6000612bc082612bc7565b9050919050565b6000612bd282612b79565b9050919050565b60005b83811015612bf7578082015181840152602081019050612bdc565b83811115612c06576000848401525b50505050565b6000819050919050565b6000819050919050565b6000601f19601f8301169050919050565b612c3a81612af9565b8114612c4557600080fd5b50565b612c5181612b0b565b8114612c5c57600080fd5b50565b612c6881612b43565b8114612c7357600080fd5b50565b612c7f81612b6f565b8114612c8a57600080fd5b50565b612c9681612b99565b8114612ca157600080fd5b5056fea2646970667358221220a5f8b078bd24b31fdb1d3727ef8df81cab36e3e59c27423442cc18e94fb904b164736f6c634300060c0033",
  "immutableReferences": {},
  "source": "// SPDX-License-Identifier: MIT\n// Redfox migration \n\npragma solidity ^0.6.6;\npragma experimental ABIEncoderV2;\n\n/// @title RedFox Migration Contract\n/// @author James Russell\n/// @notice This contract allows for the allocation of ERC20 tokens to accounts identified by a public key\n\nimport \"../node_modules/@openzeppelin/contracts/access/Ownable.sol\";\nimport \"../node_modules/@openzeppelin/contracts/token/ERC20/ERC20.sol\";\n\ncontract RedFoxMigration is Ownable{\n    \n    struct TimedBalance {\n        uint256 blockHeight;\n        uint256 amount;\n        bool paid;\n    }\n    \n    struct AccountStatus {\n        uint256 pending;\n        uint256 available;\n        uint256 released;\n    }\n    \n    struct SetRBalance {\n        bytes20 account;\n        TimedBalance[] balances;\n    }\n    \n    struct SetEthBalance {\n        address account;\n        TimedBalance[] balances;\n    }\n    \n    address private _tokenContract;\n    bool private _finalizeImport;\n    \n    //for balances with an r address\n    mapping (bytes20 => TimedBalance[]) private _rbalances;\n    //for balances with an ethereum address\n    mapping (address => TimedBalance[]) private _ebalances;\n\n    event RedFoxMigrated(address account,uint256 amount);\n    \n    constructor() public {\n        _finalizeImport = false;\n    }\n\n    function setTokenContract(address tokenContract) public onlyOwner{\n        require(_finalizeImport == false,\n            \"tokenContract cannot be changed after import has been finalized\");\n        _tokenContract = tokenContract;\n\n    } \n    \n    function finalizeImport() public onlyOwner{\n        require(_finalizeImport == false,\n            \"Action cannot be taken after import has been finalized\");\n        _finalizeImport = true;\n    }\n\n    function getTokenContract() public view returns(address){\n        return _tokenContract;\n    }\n\n    function checkTokenBalance() public view returns(uint256){\n        ERC20 redFoxToken = ERC20(_tokenContract);\n        return redFoxToken.balanceOf(address(this));\n    }\n\n    function setRAccountBalance(bytes20 account, TimedBalance[] memory balances) public onlyOwner{\n        require(_finalizeImport == false,\n            \"Action cannot be taken after import has been finalized\");\n        for(uint256 i = 0; i < balances.length; i++){\n            _rbalances[account].push(balances[i]);\n        }\n    }\n\n    function setRAccountBalances(SetRBalance[] memory balances) public onlyOwner{\n        require(_finalizeImport == false,\n            \"Action cannot be taken after import has been finalized\");\n        for (uint i=0; i < balances.length; i++){\n            setRAccountBalance(balances[i].account,balances[i].balances);\n        }\n    }\n    \n    function setEthAccountBalance(address ethAddress, TimedBalance[] memory balances) public onlyOwner{\n        require(_finalizeImport == false,\n            \"Action cannot be taken after import has been finalized\");\n        for(uint256 i = 0; i < balances.length; i++){\n            _ebalances[ethAddress].push(balances[i]);\n        }\n    }\n\n    function setEthAccountBalances(SetEthBalance[] memory balances) public onlyOwner{\n        require(_finalizeImport == false,\n            \"Action cannot be taken after import has been finalized\");\n        for (uint i=0; i < balances.length; i++){\n            setEthAccountBalance(balances[i].account,balances[i].balances);\n        }\n    }\n\n    function getEthAccountBalances(address ethAddress) public view returns (TimedBalance[] memory) {\n        return _ebalances[ethAddress];\n    }\n\n    function getRAccountBalances(bytes20 rAddress) public view returns (TimedBalance[] memory) {\n        return _rbalances[rAddress];\n    }\n    \n    function getEthAccountAvailable(address ethAddress) public view returns(uint256){\n        AccountStatus memory eStatus = generateAccountStatus(_ebalances[ethAddress]);\n        return eStatus.available;\n    }\n\n    function getRAccountAvailable(bytes20 account) public view returns (uint256) {\n        AccountStatus memory rStatus = generateAccountStatus(_rbalances[account]);\n        return rStatus.available;\n    }\n    \n    function getEthAccountStatus(address ethAddress) public view returns(AccountStatus memory){\n        return generateAccountStatus(_ebalances[ethAddress]);\n    }\n\n    function getRAccountStatus(bytes20 account) public view returns (AccountStatus memory) {\n        return generateAccountStatus(_rbalances[account]);\n    }\n    \n    function totalAccountBalance(bytes32 publicKeyX,bytes32 publicKeyY) public view returns (AccountStatus memory) {\n        AccountStatus memory totalAccountStatus;\n        bytes20 accountReference = getAccountReference(publicKeyX,publicKeyY);\n        address ethAddress = getEthereumAddress(publicKeyX,publicKeyY);\n        AccountStatus memory rStatus = getRAccountStatus(accountReference);\n        AccountStatus memory eStatus = getEthAccountStatus(ethAddress);\n        totalAccountStatus.pending = rStatus.pending + eStatus.pending;\n        totalAccountStatus.available = rStatus.available + eStatus.available;\n        totalAccountStatus.released = rStatus.released + eStatus.released;\n        return totalAccountStatus;\n    }\n\n    function withdrawBalance(bytes32 publicKeyX,bytes32 publicKeyY) public {\n        ERC20 redFoxToken = ERC20(_tokenContract);\n        address ethAddress = getEthereumAddress(publicKeyX,publicKeyY);\n        \n        //check that the public key matches the msg.sender\n        require(msg.sender == ethAddress,\n            \"msg.sender must equal the ethereum address from the public key\");\n        \n        //retrieve the balance from the public key\n        bytes20 accountRef = getAccountReference(publicKeyX,publicKeyY);\n        uint256 withdrawAmount = getEthAccountAvailable(ethAddress) + getRAccountAvailable(accountRef);\n        \n        //check that the balance allocated to this contract is enough to cover the withdrawal\n        require(redFoxToken.balanceOf(address(this))>=withdrawAmount,\n            \"Migration Contract has insufficient funds\");\n        \n        //send the balance to the msg.sender\n        redFoxToken.transfer(msg.sender,withdrawAmount);\n        \n        //mark the items as paid\n        updateBalances(ethAddress,accountRef);\n        emit RedFoxMigrated(msg.sender,withdrawAmount);\n    }\n\n    function getAccountReference(bytes32 publicKeyX,bytes32 publicKeyY) private pure returns(bytes20){\n        bytes memory compressedPublicKey = getCompressedPublicKey(publicKeyX,publicKeyY);\n        bytes32 firstSha256 = sha256(compressedPublicKey);\n        bytes20 ripemd = ripemd160(abi.encodePacked(firstSha256));\n        return ripemd;        \n    }\n\n    function getEthereumAddress(bytes32 publicKeyX,bytes32 publicKeyY) private pure returns(address addr){\n        bytes32 hash = keccak256(abi.encodePacked(publicKeyX,publicKeyY));\n        assembly {\n            mstore(0, hash)\n            addr := mload(0)\n        }    \n    }\n    \n    function getCompressedPublicKey(bytes32 publicKeyX,bytes32 publicKeyY) public pure returns(bytes memory){\n        uint256 yAsInt = uint256(publicKeyY);\n        uint8 yOdd = uint8(yAsInt&1);\n        byte leadingByte;\n        if(yOdd == 1) \n            leadingByte = 0x03; \n        else \n            leadingByte = 0x02;\n        bytes memory cPublicKey = abi.encodePacked(leadingByte,publicKeyX);\n        return cPublicKey;\n    }\n    \n    function generateAccountStatus(TimedBalance[] memory balances) private view returns (AccountStatus memory) {\n        uint256 currentBlockHeight = block.number;\n        AccountStatus memory currentStatus;\n        \n        currentStatus.pending = 0;\n        currentStatus.available = 0;\n        currentStatus.released = 0;\n        \n        for(uint256 i = 0; i < balances.length; i++){\n            if(currentBlockHeight >= balances[i].blockHeight && balances[i].paid == false){\n                currentStatus.available += balances[i].amount;\n            }\n            if(balances[i].blockHeight >= currentBlockHeight && balances[i].paid == false){\n                currentStatus.pending += balances[i].amount;\n            }\n            if(balances[i].paid == true){\n                currentStatus.released += balances[i].amount;\n            }\n        }\n        return currentStatus;\n    }\n    \n    function updateBalances(address ethAddress,bytes20 accountRef) private {\n        uint currentBlockHeight = block.number;\n        for(uint256 i = 0; i < _ebalances[ethAddress].length; i++){\n            if(currentBlockHeight >= _ebalances[ethAddress][i].blockHeight && !_ebalances[ethAddress][i].paid){\n                _ebalances[ethAddress][i].paid = true;\n            }\n        }\n        for(uint256 i = 0; i < _rbalances[accountRef].length; i++){\n            if(currentBlockHeight >= _rbalances[accountRef][i].blockHeight && !_rbalances[accountRef][i].paid){\n                _rbalances[accountRef][i].paid = true;\n            }\n        }\n    }\n}\n\n",
  "sourcePath": "/Users/james/Development/redfox/contracts/RedFoxMigration.sol",
  "compiler": {
    "name": "solc",
    "version": "0.6.12+commit.27d51765.Emscripten.clang"
  },
  "schemaVersion": "3.2.2",
  "updatedAt": "2020-10-15T17:46:17.108Z",
  "networkType": "ethereum",
  "devdoc": {
    "kind": "dev",
    "methods": {
      "owner()": {
        "details": "Returns the address of the current owner."
      },
      "renounceOwnership()": {
        "details": "Leaves the contract without owner. It will not be possible to call `onlyOwner` functions anymore. Can only be called by the current owner. NOTE: Renouncing ownership will leave the contract without an owner, thereby removing any functionality that is only available to the owner."
      },
      "transferOwnership(address)": {
        "details": "Transfers ownership of the contract to a new account (`newOwner`). Can only be called by the current owner."
      }
    },
    "version": 1
  },
  "userdoc": {
    "kind": "user",
    "methods": {},
    "version": 1
  }
}